IP 18.4.14.190.33541 > 18.4.14.91.5000: UDP, length 68
	0x0000:  0009 5be0 f790 0011 25b3 dbbf 0800 4500
	0x0010:  0060 0000 4000 4011 f96c 1204 0ebe 1204
	0x0020:  0e5b 8305 1388 004c bb7c a63e 0002 4679
	0x0030:  0b2d 4c4b 2520 4a88 12d0 0123 2030 901d
	0x0040:  cfa4 f32e 2020 2020 2020 2020 2020 4353
	0x0050:  a359 398c c4cc 8f83 5097 c993 1552 3547
	0x0060:  b842 5e6a 2020 2020 2020 2020 2020
IP 18.4.14.91.5000 > 18.4.14.190.33541: UDP, length 4
	0x0000:  0011 25b3 dbbf 0009 5be0 f790 0800 4500
	0x0010:  0020 0064 4000 4011 f948 1204 0e5b 1204
	0x0020:  0ebe 1388 8305 000c 81e8 a63e 0001
IP 18.4.14.190.33541 > 18.4.14.91.5000: UDP, length 36
	0x0000:  0009 5be0 f790 0011 25b3 dbbf 0800 4500
	0x0010:  0040 0000 4000 4011 f98c 1204 0ebe 1204
	0x0020:  0e5b 8305 1388 002c d83b 0fcc 0001 f743
	0x0030:  e890 f8d4 bc09 8d8a aa3c 0203 15e0 7d5e
	0x0040:  498c f3f5 2020 2020 2020 2020 2020
IP 18.4.14.91.5000 > 18.4.14.190.33541: UDP, length 4
	0x0000:  0011 25b3 dbbf 0009 5be0 f790 0800 4500
	0x0010:  0020 0065 4000 4011 f947 1204 0e5b 1204
	0x0020:  0ebe 1388 8305 000c 185b 0fcc 0001
IP 18.4.14.190.33541 > 18.4.14.91.5000: UDP, length 196
	0x0000:  0009 5be0 f790 0011 25b3 dbbf 0800 4500
	0x0010:  00e0 0000 4000 4011 f8ec 1204 0ebe 1204
	0x0020:  0e5b 8305 1388 00cc 0bed ef37 0006 2a69
	0x0030:  3e3c 30ca e0df de3a f2ba 597f 5d02 4f29
	0x0040:  fe4f 4147 2020 2020 2020 2020 2020 653d
	0x0050:  32bb 3683 eb73 ffc6 b674 d7cb d794 ab8d
	0x0060:  1bd9 a170 2020 2020 2020 2020 2020 9f43
	0x0070:  e404 9c63 96e5 ec02 6b0b a227 34c0 13d6
	0x0080:  c447 3ed2 2020 2020 2020 2020 2020 7765
	0x0090:  caad ea7e d911 ab87 669c 608c 046e 18a2
	0x00a0:  efb2 8e59 2020 2020 2020 2020 2020 c95c
	0x00b0:  13e6 99ed 3062 46e1 6903 72f6 172e aede
	0x00c0:  418e 6f82 2020 2020 2020 2020 2020 3039
	0x00d0:  0c6d 2145 ac4f 2d74 0020 f839 488e a4a3
	0x00e0:  0de9 d335 2020 2020 2020 2020 2020
IP 18.4.14.91.5000 > 18.4.14.190.33541: UDP, length 4
	0x0000:  0011 25b3 dbbf 0009 5be0 f790 0800 4500
	0x0010:  0020 0066 4000 4011 f946 1204 0e5b 1204
	0x0020:  0ebe 1388 8305 000c 38ef ef37 0001
IP 18.4.14.190.33541 > 18.4.14.91.5000: UDP, length 164
	0x0000:  0009 5be0 f790 0011 25b3 dbbf 0800 4500
	0x0010:  00c0 0000 4000 4011 f90c 1204 0ebe 1204
	0x0020:  0e5b 8305 1388 00ac efac 4b0d 0005 ac97
	0x0030:  48e9 49c6 e512 f2dc 3a3c fff2 3d7b a48c
	0x0040:  880e 169b 2020 2020 2020 2020 2020 bc72
	0x0050:  5846 9f61 51ec 0416 cf2e 70bd c198 7f78
	0x0060:  2788 d411 2020 2020 2020 2020 2020 df29
	0x0070:  5a6e c682 6a5b 1dc1 9307 6c2f 00fc f065
	0x0080:  b42e 825a 2020 2020 2020 2020 2020 f620
	0x0090:  1c81 5388 88cb fcda 813b acb7 2582 6ac8
	0x00a0:  7b23 106b 2020 2020 2020 2020 2020 d25d
	0x00b0:  c2fd b784 3de5 624b 3f4b a982 cbf9 3e95
	0x00c0:  1e75 8c5f 2020 2020 2020 2020 2020
IP 18.4.14.91.5000 > 18.4.14.190.33541: UDP, length 4
	0x0000:  0011 25b3 dbbf 0009 5be0 f790 0800 4500
	0x0010:  0020 0067 4000 4011 f945 1204 0e5b 1204
	0x0020:  0ebe 1388 8305 000c dd19 4b0d 0001
IP 18.4.14.190.33541 > 18.4.14.91.5000: UDP, length 260
	0x0000:  0009 5be0 f790 0011 25b3 dbbf 0800 4500
	0x0010:  0120 0000 4000 4011 f8ac 1204 0ebe 1204
	0x0020:  0e5b 8305 1388 010c a6ed ba2a 0008 847e
	0x0030:  9882 6c85 696e ef8b ab78 59ea b101 dccf
	0x0040:  22ff 770d 2020 2020 2020 2020 2020 2be1
	0x0050:  6126 27a1 3095 dac2 f99f bccc 914c 37ea
	0x0060:  d0b6 cd41 2020 2020 2020 2020 2020 3d6c
	0x0070:  7f5d 34f9 6b53 5181 e3c7 a77f d62c 4bc8
	0x0080:  c276 05f7 2020 2020 2020 2020 2020 1324
	0x0090:  b6ed b1b6 39e2 bdc7 ac2f bc0e 93ac 1269
	0x00a0:  0062 e47d 2020 2020 2020 2020 2020 f89c
	0x00b0:  f451 ab50 8625 049f 3c95 a70c 36c5 e691
	0x00c0:  9a8e 1698 2020 2020 2020 2020 2020 e7aa
	0x00d0:  f391 1d3f ac8b 876c 6a00 7068 ee26 5bd4
	0x00e0:  a228 f9d9 2020 2020 2020 2020 2020 4fdf
	0x00f0:  4540 ce08 85ee 095b 4d33 d484 5c2e a0e7
	0x0100:  933a 7cef 2020 2020 2020 2020 2020 2379
	0x0110:  9c3b 1b48 cc37 a6ea 31ec 069b 5653 9974
	0x0120:  d4ab 1938 2020 2020 2020 2020 2020
IP 18.4.14.91.5000 > 18.4.14.190.33541: UDP, length 4
	0x0000:  0011 25b3 dbbf 0009 5be0 f790 0800 4500
	0x0010:  0020 0068 4000 4011 f944 1204 0e5b 1204
	0x0020:  0ebe 1388 8305 000c 6dfc ba2a 0001
IP 18.4.14.190.33541 > 18.4.14.91.5000: UDP, length 260
	0x0000:  0009 5be0 f790 0011 25b3 dbbf 0800 4500
	0x0010:  0120 0000 4000 4011 f8ac 1204 0ebe 1204
	0x0020:  0e5b 8305 1388 010c e95a 6632 0008 d399
	0x0030:  36de 4483 82e7 56bb 5b2e a773 056c ff32
	0x0040:  d2d1 3c8a 2020 2020 2020 2020 2020 de88
	0x0050:  6ff6 eb31 4464 a256 8608 2035 e568 71d1
	0x0060:  7609 94b9 2020 2020 2020 2020 2020 b6a5
	0x0070:  a4a5 4cc6 045c 7007 94e3 64f9 3a23 7327
	0x0080:  9bb8 c8aa 2020 2020 2020 2020 2020 c9c5
	0x0090:  9aef 6769 4ef0 7108 c2a3 c684 6fff 502c
	0x00a0:  a92e 806f 2020 2020 2020 2020 2020 31e8
	0x00b0:  235b 1b3c 3ecc b7e7 2263 0213 3375 7872
	0x00c0:  5b25 fad6 2020 2020 2020 2020 2020 6193
	0x00d0:  fcd2 6e0b 1216 f8f2 fc9e c28e 71f3 17de
	0x00e0:  be6b 01ab 2020 2020 2020 2020 2020 e0ca
	0x00f0:  0e76 2373 623f 1b8c 30b5 0927 775c d900
	0x0100:  3ad3 3c88 2020 2020 2020 2020 2020 2bd5
	0x0110:  dc87 4879 ec66 d085 c339 5eba b87e 04e1
	0x0120:  be52 9704 2020 2020 2020 2020 2020
IP 18.4.14.91.5000 > 18.4.14.190.33541: UDP, length 4
	0x0000:  0011 25b3 dbbf 0009 5be0 f790 0800 4500
	0x0010:  0020 0069 4000 4011 f943 1204 0e5b 1204
	0x0020:  0ebe 1388 8305 000c c1f4 6632 0001
IP 18.4.14.190.33541 > 18.4.14.91.5000: UDP, length 164
	0x0000:  0009 5be0 f790 0011 25b3 dbbf 0800 4500
	0x0010:  00c0 0000 4000 4011 f90c 1204 0ebe 1204
	0x0020:  0e5b 8305 1388 00ac 564b 42ff 0005 cec4
	0x0030:  50dc c6a6 a4a2 f5bc cf78 f359 a7a6 1656
	0x0040:  1bfd 2c1b 2020 2020 2020 2020 2020 09ae
	0x0050:  6439 c57a d11f 607d 6985 0c49 ed08 eeb4
	0x0060:  d169 5b9b 2020 2020 2020 2020 2020 b7b9
	0x0070:  4626 564f cc45 e1a4 834d c4f8 6509 be5d
	0x0080:  f2de 4d91 2020 2020 2020 2020 2020 d624
	0x0090:  cfe7 578a fc93 ff9f 018f b06a ab30 cf4d
	0x00a0:  fa75 0bb7 2020 2020 2020 2020 2020 5ee6
	0x00b0:  d39f 6032 aedf de5f 4fff 0ab0 dca8 2e05
	0x00c0:  6835 7522 2020 2020 2020 2020 2020
IP 18.4.14.91.5000 > 18.4.14.190.33541: UDP, length 4
	0x0000:  0011 25b3 dbbf 0009 5be0 f790 0800 4500
	0x0010:  0020 006a 4000 4011 f942 1204 0e5b 1204
	0x0020:  0ebe 1388 8305 000c e527 42ff 0001
IP 18.4.14.190.33541 > 18.4.14.91.5000: UDP, length 164
	0x0000:  0009 5be0 f790 0011 25b3 dbbf 0800 4500
	0x0010:  00c0 0000 4000 4011 f90c 1204 0ebe 1204
	0x0020:  0e5b 8305 1388 00ac e47e 1cf6 0005 f3e8
	0x0030:  8c7e bd32 910f eacc 9a66 ad91 7e9a f94d
	0x0040:  2e70 db5f 2020 2020 2020 2020 2020 dce7
	0x0050:  1072 3a38 fe90 72a4 09c1 be2b 67e1 b1f6
	0x0060:  3e3d 461b 2020 2020 2020 2020 2020 59d7
	0x0070:  641a e5c1 1166 8bcc ef9c 88b3 4fee 7d63
	0x0080:  eb5a 6b8c 2020 2020 2020 2020 2020 4c36
	0x0090:  b168 6940 961d 6da1 ab6a 8890 d20a 7f6d
	0x00a0:  1e4a 538c 2020 2020 2020 2020 2020 56a2
	0x00b0:  f6cf f576 4ad8 64c8 49f2 f58a 6b7e a14d
	0x00c0:  2495 dd7d 2020 2020 2020 2020 2020
IP 18.4.14.91.5000 > 18.4.14.190.33541: UDP, length 4
	0x0000:  0011 25b3 dbbf 0009 5be0 f790 0800 4500
	0x0010:  0020 006b 4000 4011 f941 1204 0e5b 1204
	0x0020:  0ebe 1388 8305 000c 0b31 1cf6 0001
IP 18.4.14.190.33541 > 18.4.14.91.5000: UDP, length 132
	0x0000:  0009 5be0 f790 0011 25b3 dbbf 0800 4500
	0x0010:  00a0 0000 4000 4011 f92c 1204 0ebe 1204
	0x0020:  0e5b 8305 1388 008c b2be 979d 0004 3d7c
	0x0030:  f000 162e 2fba 0fef 7141 0a7b d0ee e2a5
	0x0040:  358a 5656 2020 2020 2020 2020 2020 2acd
	0x0050:  4d53 24c0 d057 1ef9 b007 1bc9 37f6 68c7
	0x0060:  998c d233 2020 2020 2020 2020 2020 4333
	0x0070:  f7d7 7649 7543 5ac1 6824 b4e8 58dd ad8f
	0x0080:  812a 2283 2020 2020 2020 2020 2020 1384
	0x0090:  0013 25b9 c9db 0545 a32e 4dd0 6b56 1bde
	0x00a0:  a45c 49bc 2020 2020 2020 2020 2020
IP 18.4.14.91.5000 > 18.4.14.190.33541: UDP, length 4
	0x0000:  0011 25b3 dbbf 0009 5be0 f790 0800 4500
	0x0010:  0020 006c 4000 4011 f940 1204 0e5b 1204
	0x0020:  0ebe 1388 8305 000c 9089 979d 0001
IP 18.4.14.190.33541 > 18.4.14.91.5000: UDP, length 68
	0x0000:  0009 5be0 f790 0011 25b3 dbbf 0800 4500
	0x0010:  0060 0000 4000 4011 f96c 1204 0ebe 1204
	0x0020:  0e5b 8305 1388 004c 1a65 1fd2 0002 40e1
	0x0030:  98c6 315c 3982 9806 3b00 4169 966b a7ff
	0x0040:  9322 7908 2020 2020 2020 2020 2020 6db7
	0x0050:  6444 c0d5 e6c9 96be abac 9b3a 834c 3e6e
	0x0060:  6bda 83ca 2020 2020 2020 2020 2020
IP 18.4.14.91.5000 > 18.4.14.190.33541: UDP, length 4
	0x0000:  0011 25b3 dbbf 0009 5be0 f790 0800 4500
	0x0010:  0020 006d 4000 4011 f93f 1204 0e5b 1204
	0x0020:  0ebe 1388 8305 000c 0855 1fd2 0001
IP 18.4.14.190.33541 > 18.4.14.91.5000: UDP, length 68
	0x0000:  0009 5be0 f790 0011 25b3 dbbf 0800 4500
	0x0010:  0060 0000 4000 4011 f96c 1204 0ebe 1204
	0x0020:  0e5b 8305 1388 004c ae54 a137 0002 6a8a
	0x0030:  30e5 73e1 6571 f90a cf48 2b31 e98b d5bf
	0x0040:  e7d0 634b 2020 2020 2020 2020 2020 a6c3
	0x0050:  5c18 3d8e 6a1a cecd 3cac 72e4 45a4 a788
	0x0060:  d331 3ae7 2020 2020 2020 2020 2020
IP 18.4.14.91.5000 > 18.4.14.190.33541: UDP, length 4
	0x0000:  0011 25b3 dbbf 0009 5be0 f790 0800 4500
	0x0010:  0020 006e 4000 4011 f93e 1204 0e5b 1204
	0x0020:  0ebe 1388 8305 000c 86ef a137 0001
IP 18.4.14.190.33541 > 18.4.14.91.5000: UDP, length 100
	0x0000:  0009 5be0 f790 0011 25b3 dbbf 0800 4500
	0x0010:  0080 0000 4000 4011 f94c 1204 0ebe 1204
	0x0020:  0e5b 8305 1388 006c 1a92 94ff 0003 c0b6
	0x0030:  f994 9c67 74f0 a9c9 bd94 cda0 7ee0 05bf
	0x0040:  08ff 85e2 2020 2020 2020 2020 2020 ae27
	0x0050:  eef4 db2c 07fb fd2e 6aeb 5e71 97e4 7796
	0x0060:  8d02 d8c5 2020 2020 2020 2020 2020 50fb
	0x0070:  8c60 49fd 257d f6ca 6e35 0b0d 3ec2 3281
	0x0080:  d404 c38d 2020 2020 2020 2020 2020
IP 18.4.14.91.5000 > 18.4.14.190.33541: UDP, length 4
	0x0000:  0011 25b3 dbbf 0009 5be0 f790 0800 4500
	0x0010:  0020 006f 4000 4011 f93d 1204 0e5b 1204
	0x0020:  0ebe 1388 8305 000c 9327 94ff 0001
IP 18.4.14.190.33541 > 18.4.14.91.5000: UDP, length 228
	0x0000:  0009 5be0 f790 0011 25b3 dbbf 0800 4500
	0x0010:  0100 0000 4000 4011 f8cc 1204 0ebe 1204
	0x0020:  0e5b 8305 1388 00ec 14c9 808c 0007 9cff
	0x0030:  b8af 042a b55f 1d84 71c3 c5c1 7324 6306
	0x0040:  5389 c777 2020 2020 2020 2020 2020 d07b
	0x0050:  4295 a37d b87e e06c 3c4f 437e 0eba a489
	0x0060:  a3ef 3b9f 2020 2020 2020 2020 2020 5a2f
	0x0070:  6c92 dfdc a2f7 37d1 3f8b 14e5 9fcc 3abe
	0x0080:  05a4 e16f 2020 2020 2020 2020 2020 768e
	0x0090:  c56a c1c4 6093 0db6 5f23 487f 8211 29df
	0x00a0:  43ce afd8 2020 2020 2020 2020 2020 fe23
	0x00b0:  7810 496a 817f e9b7 0f9e 378f ada5 dd25
	0x00c0:  4722 1fe5 2020 2020 2020 2020 2020 1462
	0x00d0:  5382 b365 2f6f c492 0232 a5d9 e0fd d55b
	0x00e0:  a08b 46ea 2020 2020 2020 2020 2020 61d4
	0x00f0:  a66e 840a bd01 d309 4353 25be 94d9 c9d5
	0x0100:  f7a1 95ac 2020 2020 2020 2020 2020
IP 18.4.14.91.5000 > 18.4.14.190.33541: UDP, length 4
	0x0000:  0011 25b3 dbbf 0009 5be0 f790 0800 4500
	0x0010:  0020 0070 4000 4011 f93c 1204 0e5b 1204
	0x0020:  0ebe 1388 8305 000c a79a 808c 0001
IP 18.4.14.190.33541 > 18.4.14.91.5000: UDP, length 4
	0x0000:  0009 5be0 f790 0011 25b3 dbbf 0800 4500
	0x0010:  0020 0000 4000 4011 f9ac 1204 0ebe 1204
	0x0020:  0e5b 8305 1388 000c 79c3 ae64 0000 0000
	0x0030:  0000 0000 0000 0000 0000 0000
IP 18.4.14.91.5000 > 18.4.14.190.33541: UDP, length 4
	0x0000:  0011 25b3 dbbf 0009 5be0 f790 0800 4500
	0x0010:  0020 0071 4000 4011 f93b 1204 0e5b 1204
	0x0020:  0ebe 1388 8305 000c 79c2 ae64 0001
IP 18.4.14.190.33541 > 18.4.14.91.5000: UDP, length 260
	0x0000:  0009 5be0 f790 0011 25b3 dbbf 0800 4500
	0x0010:  0120 0000 4000 4011 f8ac 1204 0ebe 1204
	0x0020:  0e5b 8305 1388 010c 6b61 c85c 0008 de7a
	0x0030:  e506 1533 52c7 ea68 7de6 26de bbe3 553f
	0x0040:  773e f510 2020 2020 2020 2020 2020 942b
	0x0050:  de1c 022f 4e08 e7d0 4304 b06b 7960 03dd
	0x0060:  75d5 3475 2020 2020 2020 2020 2020 53b8
	0x0070:  cb00 5d69 edce ab00 0290 b7b8 3269 15e2
	0x0080:  f564 deb5 2020 2020 2020 2020 2020 7673
	0x0090:  c036 1cc9 965e 0a99 16e5 5351 8053 0c75
	0x00a0:  be62 c42c 2020 2020 2020 2020 2020 5c49
	0x00b0:  50bd 473d 330b 0e9f e0a9 a39d d5c1 31f8
	0x00c0:  dd99 b0a8 2020 2020 2020 2020 2020 03e6
	0x00d0:  5d54 ee40 2c7c a38c 05b7 098a 39d9 5326
	0x00e0:  2c9e 281d 2020 2020 2020 2020 2020 6a3c
	0x00f0:  5c79 7aa2 3d8c 379d 9709 6b94 3e0e 5761
	0x0100:  73d6 b837 2020 2020 2020 2020 2020 89c7
	0x0110:  071a 42ee e898 4f55 be66 768f 7562 1a54
	0x0120:  54b5 95ed 2020 2020 2020 2020 2020
IP 18.4.14.91.5000 > 18.4.14.190.33541: UDP, length 4
	0x0000:  0011 25b3 dbbf 0009 5be0 f790 0800 4500
	0x0010:  0020 0072 4000 4011 f93a 1204 0e5b 1204
	0x0020:  0ebe 1388 8305 000c 5fca c85c 0001
IP 18.4.14.190.33541 > 18.4.14.91.5000: UDP, length 36
	0x0000:  0009 5be0 f790 0011 25b3 dbbf 0800 4500
	0x0010:  0040 0000 4000 4011 f98c 1204 0ebe 1204
	0x0020:  0e5b 8305 1388 002c b794 9098 0001 78c2
	0x0030:  99e9 f05e e3d9 2570 d115 eba2 f23a 2639
	0x0040:  18f5 44a2 2020 2020 2020 2020 2020
IP 18.4.14.91.5000 > 18.4.14.190.33541: UDP, length 4
	0x0000:  0011 25b3 dbbf 0009 5be0 f790 0800 4500
	0x0010:  0020 0073 4000 4011 f939 1204 0e5b 1204
	0x0020:  0ebe 1388 8305 000c 978e 9098 0001
IP 18.4.14.190.33541 > 18.4.14.91.5000: UDP, length 228
	0x0000:  0009 5be0 f790 0011 25b3 dbbf 0800 4500
	0x0010:  0100 0000 4000 4011 f8cc 1204 0ebe 1204
	0x0020:  0e5b 8305 1388 00ec e47c 67c8 0007 0373
	0x0030:  6eb5 1106 ed4b 4bbb 3b24 28f6 5e56 2a28
	0x0040:  4202 c6dc 2020 2020 2020 2020 2020 17fe
	0x0050:  2235 de06 a080 510c e599 3496 6dca 9325
	0x0060:  51a2 72ca 2020 2020 2020 2020 2020 f031
	0x0070:  8b00 6a24 2dff 8221 41f0 bdb7 4759 543e
	0x0080:  8183 60dc 2020 2020 2020 2020 2020 b55b
	0x0090:  d496 3cd0 7dad 6e21 7a30 6b9b 2a0f 82cc
	0x00a0:  f856 dc57 2020 2020 2020 2020 2020 a7a5
	0x00b0:  7966 a4e6 6bf2 19fa dde7 c3c1 1686 23cb
	0x00c0:  7c35 2c04 2020 2020 2020 2020 2020 bd1f
	0x00d0:  a269 8cf7 95d9 aae0 fa81 81c4 8266 da4e
	0x00e0:  6b23 e44d 2020 2020 2020 2020 2020 47bd
	0x00f0:  5568 0f84 69e0 837e 95cb 2c65 135d 8af3
	0x0100:  df97 add8 2020 2020 2020 2020 2020
IP 18.4.14.91.5000 > 18.4.14.190.33541: UDP, length 4
	0x0000:  0011 25b3 dbbf 0009 5be0 f790 0800 4500
	0x0010:  0020 0074 4000 4011 f938 1204 0e5b 1204
	0x0020:  0ebe 1388 8305 000c c05e 67c8 0001
IP 18.4.14.190.33541 > 18.4.14.91.5000: UDP, length 100
	0x0000:  0009 5be0 f790 0011 25b3 dbbf 0800 4500
	0x0010:  0080 0000 4000 4011 f94c 1204 0ebe 1204
	0x0020:  0e5b 8305 1388 006c df5a d366 0003 ef85
	0x0030:  9e66 4c27 9caa d330 cba0 dff3 8508 f5aa
	0x0040:  80ff 67f7 2020 2020 2020 2020 2020 ff88
	0x0050:  71c2 2829 b691 3d07 e4cb 9046 7b5d 04ac
	0x0060:  2e93 7007 2020 2020 2020 2020 2020 b046
	0x0070:  77e7 53d5 8951 17da 5221 9c34 f694 5fe1
	0x0080:  f364 c36e 2020 2020 2020 2020 2020
IP 18.4.14.91.5000 > 18.4.14.190.33541: UDP, length 4
	0x0000:  0011 25b3 dbbf 0009 5be0 f790 0800 4500
	0x0010:  0020 0075 4000 4011 f937 1204 0e5b 1204
	0x0020:  0ebe 1388 8305 000c 54c0 d366 0001
IP 18.4.14.190.33541 > 18.4.14.91.5000: UDP, length 36
	0x0000:  0009 5be0 f790 0011 25b3 dbbf 0800 4500
	0x0010:  0040 0000 4000 4011 f98c 1204 0ebe 1204
	0x0020:  0e5b 8305 1388 002c f637 2731 0001 a29c
	0x0030:  1833 cf74 5756 9688 081d 4548 b22b 3a8d
	0x0040:  1127 a674 2020 2020 2020 2020 2020
IP 18.4.14.91.5000 > 18.4.14.190.33541: UDP, length 4
	0x0000:  0011 25b3 dbbf 0009 5be0 f790 0800 4500
	0x0010:  0020 0076 4000 4011 f936 1204 0e5b 1204
	0x0020:  0ebe 1388 8305 000c 00f6 2731 0001
IP 18.4.14.190.33541 > 18.4.14.91.5000: UDP, length 196
	0x0000:  0009 5be0 f790 0011 25b3 dbbf 0800 4500
	0x0010:  00e0 0000 4000 4011 f8ec 1204 0ebe 1204
	0x0020:  0e5b 8305 1388 00cc d71a d7a8 0006 52d8
	0x0030:  ee50 7520 ab20 0f06 b446 7c8d f003 31d7
	0x0040:  4131 188c 2020 2020 2020 2020 2020 7be1
	0x0050:  b0f0 6502 0d17 c7bc 2316 eb3a 023c d003
	0x0060:  8961 e5dd 2020 2020 2020 2020 2020 501d
	0x0070:  5d84 c90f 63af b8d3 5b1c 9579 5c66 35ab
	0x0080:  526d 286f 2020 2020 2020 2020 2020 0909
	0x0090:  85a2 900a 8604 5067 0392 21ad 319c ebe0
	0x00a0:  5308 f7b8 2020 2020 2020 2020 2020 3422
	0x00b0:  5e9e 76c0 4a12 c96d 94d4 757b 96ab fb50
	0x00c0:  ca2a 867c 2020 2020 2020 2020 2020 471a
	0x00d0:  308d 4ddc 41fb be8a 3228 e864 9d39 8e89
	0x00e0:  4295 7488 2020 2020 2020 2020 2020
IP 18.4.14.91.5000 > 18.4.14.190.33541: UDP, length 4
	0x0000:  0011 25b3 dbbf 0009 5be0 f790 0800 4500
	0x0010:  0020 0077 4000 4011 f935 1204 0e5b 1204
	0x0020:  0ebe 1388 8305 000c 507e d7a8 0001
IP 18.4.14.190.33541 > 18.4.14.91.5000: UDP, length 100
	0x0000:  0009 5be0 f790 0011 25b3 dbbf 0800 4500
	0x0010:  0080 0000 4000 4011 f94c 1204 0ebe 1204
	0x0020:  0e5b 8305 1388 006c ec1d 03e0 0003 6ca1
	0x0030:  fa38 8303 b8cb e49d 0fd9 4fe2 f211 a53b
	0x0040:  578b ee59 2020 2020 2020 2020 2020 9450
	0x0050:  599c fcc6 cb10 c1eb 861e 9745 8b07 c215
	0x0060:  ed5e c3c8 2020 2020 2020 2020 2020 409b
	0x0070:  02a9 2fc6 7e2d 6a66 59ab e998 5d32 3ab7
	0x0080:  05e0 c149 2020 2020 2020 2020 2020
IP 18.4.14.91.5000 > 18.4.14.190.33541: UDP, length 4
	0x0000:  0011 25b3 dbbf 0009 5be0 f790 0800 4500
	0x0010:  0020 0078 4000 4011 f934 1204 0e5b 1204
	0x0020:  0ebe 1388 8305 000c 2447 03e0 0001
IP 18.4.14.190.33541 > 18.4.14.91.5000: UDP, length 164
	0x0000:  0009 5be0 f790 0011 25b3 dbbf 0800 4500
	0x0010:  00c0 0000 4000 4011 f90c 1204 0ebe 1204
	0x0020:  0e5b 8305 1388 00ac 8c24 3d5a 0005 e0d9
	0x0030:  2381 c365 b6f3 3ede 1260 bd49 33a5 57ea
	0x0040:  072b 297b 2020 2020 2020 2020 2020 8e97
	0x0050:  3043 b01a cd11 c29e ddef 28c2 c20c dfc8
	0x0060:  04ce 252d 2020 2020 2020 2020 2020 f99b
	0x0070:  85eb 4b5c 7199 342d d406 46fd d4dd 2e8c
	0x0080:  81bd 33e0 2020 2020 2020 2020 2020 8733
	0x0090:  3112 6881 3663 1132 a07c 5093 d1fc 2043
	0x00a0:  f1b6 74fb 2020 2020 2020 2020 2020 4ceb
	0x00b0:  e7f9 9d82 3a5d 637a fd69 3beb 11e8 1801
	0x00c0:  da68 7aaa 2020 2020 2020 2020 2020
IP 18.4.14.91.5000 > 18.4.14.190.33541: UDP, length 4
	0x0000:  0011 25b3 dbbf 0009 5be0 f790 0800 4500
	0x0010:  0020 0079 4000 4011 f933 1204 0e5b 1204
	0x0020:  0ebe 1388 8305 000c eacc 3d5a 0001
IP 18.4.14.190.33541 > 18.4.14.91.5000: UDP, length 100
	0x0000:  0009 5be0 f790 0011 25b3 dbbf 0800 4500
	0x0010:  0080 0000 4000 4011 f94c 1204 0ebe 1204
	0x0020:  0e5b 8305 1388 006c d37e a83c 0003 e492
	0x0030:  2ed4 476f 6815 0d9d a2c0 328d 2ffe b55c
	0x0040:  4064 31a8 2020 2020 2020 2020 2020 a16d
	0x0050:  533f 61d3 d27e cb98 68d4 b8a9 b587 0215
	0x0060:  db86 12a9 2020 2020 2020 2020 2020 8537
	0x0070:  b850 92d9 49f1 e2fa 5d24 cd9d 8e5d 7a64
	0x0080:  af5a 307a 2020 2020 2020 2020 2020
IP 18.4.14.91.5000 > 18.4.14.190.33541: UDP, length 4
	0x0000:  0011 25b3 dbbf 0009 5be0 f790 0800 4500
	0x0010:  0020 007a 4000 4011 f932 1204 0e5b 1204
	0x0020:  0ebe 1388 8305 000c 7fea a83c 0001
IP 18.4.14.190.33541 > 18.4.14.91.5000: UDP, length 196
	0x0000:  0009 5be0 f790 0011 25b3 dbbf 0800 4500
	0x0010:  00e0 0000 4000 4011 f8ec 1204 0ebe 1204
	0x0020:  0e5b 8305 1388 00cc 93e2 2b42 0006 dc85
	0x0030:  3f9f f208 5d78 1c8b ecb8 5b11 1caa 92ec
	0x0040:  a9db e75b 2020 2020 2020 2020 2020 5b16
	0x0050:  8fa0 e211 bfea b4a7 539e ca15 1b91 9dc3
	0x0060:  b1bb a5c5 2020 2020 2020 2020 2020 6daa
	0x0070:  43c2 d250 a3aa 189a 4cd0 80a7 052f 4928
	0x0080:  00c2 2c76 2020 2020 2020 2020 2020 fa83
	0x0090:  ab6b 4c2e 1faa 2f00 0d2f 632d a978 202a
	0x00a0:  9ec8 a0a6 2020 2020 2020 2020 2020 c917
	0x00b0:  8450 8db5 bdd9 2eaf cbf2 537b f7c2 f309
	0x00c0:  af7c d893 2020 2020 2020 2020 2020 40fc
	0x00d0:  bb03 f477 79e0 5335 970a baf3 7394 288f
	0x00e0:  bda8 1c7f 2020 2020 2020 2020 2020
IP 18.4.14.91.5000 > 18.4.14.190.33541: UDP, length 4
	0x0000:  0011 25b3 dbbf 0009 5be0 f790 0800 4500
	0x0010:  0020 007b 4000 4011 f931 1204 0e5b 1204
	0x0020:  0ebe 1388 8305 000c fce4 2b42 0001
IP 18.4.14.190.33541 > 18.4.14.91.5000: UDP, length 196
	0x0000:  0009 5be0 f790 0011 25b3 dbbf 0800 4500
	0x0010:  00e0 0000 4000 4011 f8ec 1204 0ebe 1204
	0x0020:  0e5b 8305 1388 00cc 22c3 69d4 0006 ec38
	0x0030:  097d 8ec1 b409 2f6b e0cc 565c 37e4 bd28
	0x0040:  96bf 1a6f 2020 2020 2020 2020 2020 663d
	0x0050:  3dfe 938f 2c20 a6b9 eb81 3157 86f0 8b5d
	0x0060:  2244 9e77 2020 2020 2020 2020 2020 0ea5
	0x0070:  ffac 2d3f 5a69 c892 d65c 8508 5c53 c93b
	0x0080:  db45 b26c 2020 2020 2020 2020 2020 e519
	0x0090:  3f88 ee82 d0b3 f8bb ea52 89c0 2407 95d9
	0x00a0:  9d2c 686e 2020 2020 2020 2020 2020 7782
	0x00b0:  9e51 f995 c509 7d56 d094 30b1 2fac 6b2d
	0x00c0:  7a6d 84dc 2020 2020 2020 2020 2020 8aa2
	0x00d0:  0405 91b1 b63b 5fbc 0d27 37ee 8ba5 9948
	0x00e0:  b5e1 d5aa 2020 2020 2020 2020 2020
IP 18.4.14.91.5000 > 18.4.14.190.33541: UDP, length 4
	0x0000:  0011 25b3 dbbf 0009 5be0 f790 0800 4500
	0x0010:  0020 007c 4000 4011 f930 1204 0e5b 1204
	0x0020:  0ebe 1388 8305 000c be52 69d4 0001
IP 18.4.14.190.33541 > 18.4.14.91.5000: UDP, length 68
	0x0000:  0009 5be0 f790 0011 25b3 dbbf 0800 4500
	0x0010:  0060 0000 4000 4011 f96c 1204 0ebe 1204
	0x0020:  0e5b 8305 1388 004c 3121 3563 0002 72f9
	0x0030:  127f 81a5 bdb2 bd21 f6a5 33c7 5cfe 2002
	0x0040:  1172 e23d 2020 2020 2020 2020 2020 5033
	0x0050:  0786 a875 c3d5 c8c9 f25b 2352 fc1b 843a
	0x0060:  ffd0 402c 2020 2020 2020 2020 2020
IP 18.4.14.91.5000 > 18.4.14.190.33541: UDP, length 4
	0x0000:  0011 25b3 dbbf 0009 5be0 f790 0800 4500
	0x0010:  0020 007d 4000 4011 f92f 1204 0e5b 1204
	0x0020:  0ebe 1388 8305 000c f2c3 3563 0001
IP 18.4.14.190.33541 > 18.4.14.91.5000: UDP, length 164
	0x0000:  0009 5be0 f790 0011 25b3 dbbf 0800 4500
	0x0010:  00c0 0000 4000 4011 f90c 1204 0ebe 1204
	0x0020:  0e5b 8305 1388 00ac ee38 a39a 0005 38dc
	0x0030:  fe8a dd69 9a02 1be3 368a 6527 5f11 7aa3
	0x0040:  bcbc 3a65 2020 2020 2020 2020 2020 f1b3
	0x0050:  0ff2 22eb b996 9787 7ea1 1b7f 7aea e960
	0x0060:  f08f 2a9c 2020 2020 2020 2020 2020 bdfc
	0x0070:  aab9 4732 3833 84fe 6ee5 5ee9 147e a1de
	0x0080:  4cf4 3f08 2020 2020 2020 2020 2020 6575
	0x0090:  4722 7bad bcec 4748 856e 3913 be12 5db0
	0x00a0:  04c2 4c7a 2020 2020 2020 2020 2020 b0a0
	0x00b0:  6119 da99 36a1 c4b9 06d4 8ebd ed2e c38e
	0x00c0:  a0ba 076f 2020 2020 2020 2020 2020
IP 18.4.14.91.5000 > 18.4.14.190.33541: UDP, length 4
	0x0000:  0011 25b3 dbbf 0009 5be0 f790 0800 4500
	0x0010:  0020 007e 4000 4011 f92e 1204 0e5b 1204
	0x0020:  0ebe 1388 8305 000c 848c a39a 0001
IP 18.4.14.190.33541 > 18.4.14.91.5000: UDP, length 164
	0x0000:  0009 5be0 f790 0011 25b3 dbbf 0800 4500
	0x0010:  00c0 0000 4000 4011 f90c 1204 0ebe 1204
	0x0020:  0e5b 8305 1388 00ac 5a16 b664 0005 0082
	0x0030:  a3b6 d0d4 76eb f7f4 873a 181a ccd9 801a
	0x0040:  2d80 2a79 2020 2020 2020 2020 2020 441a
	0x0050:  e2d2 e149 275b a00c 334a 9b7f 9233 ee49
	0x0060:  d855 7451 2020 2020 2020 2020 2020 3657
	0x0070:  d5c9 0219 b967 5c7a a779 ac88 7e30 2e13
	0x0080:  bed3 1a77 2020 2020 2020 2020 2020 bfce
	0x0090:  231e aa54 8d12 2968 bfb0 9705 6632 4a5b
	0x00a0:  f5ec 1fc2 2020 2020 2020 2020 2020 1ba4
	0x00b0:  7773 da5b 6666 df8d 6377 ada4 e41c 2f79
	0x00c0:  91d6 973a 2020 2020 2020 2020 2020
IP 18.4.14.91.5000 > 18.4.14.190.33541: UDP, length 4
	0x0000:  0011 25b3 dbbf 0009 5be0 f790 0800 4500
	0x0010:  0020 007f 4000 4011 f92d 1204 0e5b 1204
	0x0020:  0ebe 1388 8305 000c 71c2 b664 0001
IP 18.4.14.190.33541 > 18.4.14.91.5000: UDP, length 260
	0x0000:  0009 5be0 f790 0011 25b3 dbbf 0800 4500
	0x0010:  0120 0000 4000 4011 f8ac 1204 0ebe 1204
	0x0020:  0e5b 8305 1388 010c b6e9 7b7e 0008 8317
	0x0030:  5bc9 a4a0 5f06 c638 8db7 32c2 a2bd ba82
	0x0040:  1033 820f 2020 2020 2020 2020 2020 643b
	0x0050:  6f44 df47 f1bd 67d8 5c77 967d af4e f98e
	0x0060:  733e 275c 2020 2020 2020 2020 2020 0296
	0x0070:  a1b0 a610 a3ca 5723 2b4e 7682 7d4c 3fa8
	0x0080:  6361 9e59 2020 2020 2020 2020 2020 033a
	0x0090:  0961 d510 84de 446a 7d1e 2990 54bf 0b55
	0x00a0:  faf9 6909 2020 2020 2020 2020 2020 ed14
	0x00b0:  06c0 3ffc cc1f d345 e23c fa52 8644 bf48
	0x00c0:  b31a b86b 2020 2020 2020 2020 2020 274f
	0x00d0:  f140 d2be 0627 fe5c 47d4 b0a8 f770 c15c
	0x00e0:  8d77 3ad5 2020 2020 2020 2020 2020 eb07
	0x00f0:  5d60 5a42 136e d0ff 270a daf2 ab08 f216
	0x0100:  2920 8c96 2020 2020 2020 2020 2020 1f4c
	0x0110:  8fbc d304 fa8d 9e86 1785 a128 80e1 1d1c
	0x0120:  284b 5760 2020 2020 2020 2020 2020
IP 18.4.14.91.5000 > 18.4.14.190.33541: UDP, length 4
	0x0000:  0011 25b3 dbbf 0009 5be0 f790 0800 4500
	0x0010:  0020 0080 4000 4011 f92c 1204 0e5b 1204
	0x0020:  0ebe 1388 8305 000c aca8 7b7e 0001
IP 18.4.14.190.33541 > 18.4.14.91.5000: UDP, length 68
	0x0000:  0009 5be0 f790 0011 25b3 dbbf 0800 4500
	0x0010:  0060 0000 4000 4011 f96c 1204 0ebe 1204
	0x0020:  0e5b 8305 1388 004c 1759 2669 0002 0f75
	0x0030:  77bd 02f1 d4f0 8078 0d78 eb6e c1d6 4a84
	0x0040:  1dcf 5899 2020 2020 2020 2020 2020 7305
	0x0050:  2835 d652 051f 357d 6302 d85f 0a34 77ba
	0x0060:  7593 6e5d 2020 2020 2020 2020 2020
IP 18.4.14.91.5000 > 18.4.14.190.33541: UDP, length 4
	0x0000:  0011 25b3 dbbf 0009 5be0 f790 0800 4500
	0x0010:  0020 0081 4000 4011 f92b 1204 0e5b 1204
	0x0020:  0ebe 1388 8305 000c 01be 2669 0001
IP 18.4.14.190.33541 > 18.4.14.91.5000: UDP, length 36
	0x0000:  0009 5be0 f790 0011 25b3 dbbf 0800 4500
	0x0010:  0040 0000 4000 4011 f98c 1204 0ebe 1204
	0x0020:  0e5b 8305 1388 002c 1a61 18c7 0001 617b
	0x0030:  f599 55f0 57a5 6ec2 e212 c084 099d 77aa
	0x0040:  0a73 b25e 2020 2020 2020 2020 2020
IP 18.4.14.91.5000 > 18.4.14.190.33541: UDP, length 4
	0x0000:  0011 25b3 dbbf 0009 5be0 f790 0800 4500
	0x0010:  0020 0082 4000 4011 f92a 1204 0e5b 1204
	0x0020:  0ebe 1388 8305 000c 0f60 18c7 0001
IP 18.4.14.190.33541 > 18.4.14.91.5000: UDP, length 36
	0x0000:  0009 5be0 f790 0011 25b3 dbbf 0800 4500
	0x0010:  0040 0000 4000 4011 f98c 1204 0ebe 1204
	0x0020:  0e5b 8305 1388 002c c8b9 9710 0001 e2e9
	0x0030:  af43 be02 0b2b a445 dd30 9e72 747c d51a
	0x0040:  af45 b35a 2020 2020 2020 2020 2020
IP 18.4.14.91.5000 > 18.4.14.190.33541: UDP, length 4
	0x0000:  0011 25b3 dbbf 0009 5be0 f790 0800 4500
	0x0010:  0020 0083 4000 4011 f929 1204 0e5b 1204
	0x0020:  0ebe 1388 8305 000c 9116 9710 0001
IP 18.4.14.190.33541 > 18.4.14.91.5000: UDP, length 164
	0x0000:  0009 5be0 f790 0011 25b3 dbbf 0800 4500
	0x0010:  00c0 0000 4000 4011 f90c 1204 0ebe 1204
	0x0020:  0e5b 8305 1388 00ac be07 2243 0005 b76b
	0x0030:  a445 f8a9 f10b 4f05 ef8d 082d e106 3e4c
	0x0040:  e57e b922 2020 2020 2020 2020 2020 8e65
	0x0050:  d51d 08bf be6a 6ff5 b616 1e50 47ec 877d
	0x0060:  415f 997c 2020 2020 2020 2020 2020 3629
	0x0070:  48b1 f226 6340 5c1b 0d49 08cf 1602 ec6f
	0x0080:  f094 1cb0 2020 2020 2020 2020 2020 da66
	0x0090:  02d4 bb88 4323 df99 271d ecaf f3db 42e8
	0x00a0:  1e88 e4e0 2020 2020 2020 2020 2020 6cda
	0x00b0:  f787 0d07 5367 e072 d7ca 4891 b456 fa9f
	0x00c0:  cb57 2074 2020 2020 2020 2020 2020
IP 18.4.14.91.5000 > 18.4.14.190.33541: UDP, length 4
	0x0000:  0011 25b3 dbbf 0009 5be0 f790 0800 4500
	0x0010:  0020 0084 4000 4011 f928 1204 0e5b 1204
	0x0020:  0ebe 1388 8305 000c 05e4 2243 0001
IP 18.4.14.190.33541 > 18.4.14.91.5000: UDP, length 100
	0x0000:  0009 5be0 f790 0011 25b3 dbbf 0800 4500
	0x0010:  0080 0000 4000 4011 f94c 1204 0ebe 1204
	0x0020:  0e5b 8305 1388 006c 07b1 54ee 0003 c2a4
	0x0030:  3cf1 733d 4d9e 91a9 e6c5 abb4 caf4 6792
	0x0040:  38e9 dcb2 2020 2020 2020 2020 2020 5742
	0x0050:  57e0 cc62 41e0 fd44 c3af d35b 116d 2397
	0x0060:  dd76 6f24 2020 2020 2020 2020 2020 c69e
	0x0070:  3f3b cc15 0766 0f58 357a a171 3e57 313f
	0x0080:  7553 4451 2020 2020 2020 2020 2020
IP 18.4.14.91.5000 > 18.4.14.190.33541: UDP, length 4
	0x0000:  0011 25b3 dbbf 0009 5be0 f790 0800 4500
	0x0010:  0020 0085 4000 4011 f927 1204 0e5b 1204
	0x0020:  0ebe 1388 8305 000c d338 54ee 0001
IP 18.4.14.190.33541 > 18.4.14.91.5000: UDP, length 100
	0x0000:  0009 5be0 f790 0011 25b3 dbbf 0800 4500
	0x0010:  0080 0000 4000 4011 f94c 1204 0ebe 1204
	0x0020:  0e5b 8305 1388 006c b9f9 9752 0003 adb0
	0x0030:  effe 0310 2d0c 331f fa56 546f 7ca8 b108
	0x0040:  746a 8a7e 2020 2020 2020 2020 2020 4414
	0x0050:  ab84 42b4 0a37 30f8 e876 69b8 82d6 82b0
	0x0060:  0040 5f67 2020 2020 2020 2020 2020 d22b
	0x0070:  8e26 d5f5 3fa6 f098 edd9 4b81 b512 55dd
	0x0080:  568b 51b3 2020 2020 2020 2020 2020
IP 18.4.14.91.5000 > 18.4.14.190.33541: UDP, length 4
	0x0000:  0011 25b3 dbbf 0009 5be0 f790 0800 4500
	0x0010:  0020 0086 4000 4011 f926 1204 0e5b 1204
	0x0020:  0ebe 1388 8305 000c 90d4 9752 0001
IP 18.4.14.190.33541 > 18.4.14.91.5000: UDP, length 36
	0x0000:  0009 5be0 f790 0011 25b3 dbbf 0800 4500
	0x0010:  0040 0000 4000 4011 f98c 1204 0ebe 1204
	0x0020:  0e5b 8305 1388 002c 3b8c 7b57 0001 c968
	0x0030:  7e36 c019 f232 8bb2 feaa f275 440c 7423
	0x0040:  740e 2d65 2020 2020 2020 2020 2020
IP 18.4.14.91.5000 > 18.4.14.190.33541: UDP, length 4
	0x0000:  0011 25b3 dbbf 0009 5be0 f790 0800 4500
	0x0010:  0020 0087 4000 4011 f925 1204 0e5b 1204
	0x0020:  0ebe 1388 8305 000c accf 7b57 0001
IP 18.4.14.190.33541 > 18.4.14.91.5000: UDP, length 164
	0x0000:  0009 5be0 f790 0011 25b3 dbbf 0800 4500
	0x0010:  00c0 0000 4000 4011 f90c 1204 0ebe 1204
	0x0020:  0e5b 8305 1388 00ac 0a03 2e3f 0005 29f4
	0x0030:  50c5 db61 c234 0d96 79e9 60ae 06f1 ec3b
	0x0040:  a880 f215 2020 2020 2020 2020 2020 d929
	0x0050:  84b6 4f92 db16 3c2e 66a4 0745 c96c 3d19
	0x0060:  8b0b 24d9 2020 2020 2020 2020 2020 5f54
	0x0070:  8cff fb0b abdf ffa1 2cc7 f6bd 3363 df7c
	0x0080:  4a84 9568 2020 2020 2020 2020 2020 8547
	0x0090:  42b9 e3b0 4b7a bb8c 663e 3581 169a faaa
	0x00a0:  2311 4827 2020 2020 2020 2020 2020 d096
	0x00b0:  25e9 ee44 0b11 2086 98c6 2d86 e3ac 3526
	0x00c0:  f556 fb33 2020 2020 2020 2020 2020
IP 18.4.14.91.5000 > 18.4.14.190.33541: UDP, length 4
	0x0000:  0011 25b3 dbbf 0009 5be0 f790 0800 4500
	0x0010:  0020 0088 4000 4011 f924 1204 0e5b 1204
	0x0020:  0ebe 1388 8305 000c f9e7 2e3f 0001
IP 18.4.14.190.33541 > 18.4.14.91.5000: UDP, length 228
	0x0000:  0009 5be0 f790 0011 25b3 dbbf 0800 4500
	0x0010:  0100 0000 4000 4011 f8cc 1204 0ebe 1204
	0x0020:  0e5b 8305 1388 00ec 8dbd 44be 0007 0f57
	0x0030:  24fb 7331 c130 556c daea ad34 f968 2fcc
	0x0040:  916b ba7d 2020 2020 2020 2020 2020 a2ec
	0x0050:  83ff ede3 2afb b57a 3b54 e39c fd65 97db
	0x0060:  5bac 86c6 2020 2020 2020 2020 2020 0605
	0x0070:  cff8 727a 08a0 cdf8 dc4d a142 9423 ee2c
	0x0080:  6285 fdd5 2020 2020 2020 2020 2020 2af6
	0x0090:  b23f 0605 7745 68e9 75a5 1d95 b0c5 fffa
	0x00a0:  13f1 12f0 2020 2020 2020 2020 2020 d731
	0x00b0:  5763 dd36 134f 8c39 0650 41f3 b71c 6eb6
	0x00c0:  5922 5171 2020 2020 2020 2020 2020 c16e
	0x00d0:  6156 c002 53e4 9f11 c27d fa76 6ff6 75e6
	0x00e0:  4646 d323 2020 2020 2020 2020 2020 b3c7
	0x00f0:  ecea 25d3 0978 9a36 0d32 29ae 72aa fcb1
	0x0100:  2b77 68c2 2020 2020 2020 2020 2020
IP 18.4.14.91.5000 > 18.4.14.190.33541: UDP, length 4
	0x0000:  0011 25b3 dbbf 0009 5be0 f790 0800 4500
	0x0010:  0020 0089 4000 4011 f923 1204 0e5b 1204
	0x0020:  0ebe 1388 8305 000c e368 44be 0001
IP 18.4.14.190.33541 > 18.4.14.91.5000: UDP, length 164
	0x0000:  0009 5be0 f790 0011 25b3 dbbf 0800 4500
	0x0010:  00c0 0000 4000 4011 f90c 1204 0ebe 1204
	0x0020:  0e5b 8305 1388 00ac 92a2 c0f9 0005 ec83
	0x0030:  3eaa 261a 046f ac02 eb20 09d8 4160 5891
	0x0040:  f97a d0ec 2020 2020 2020 2020 2020 09a3
	0x0050:  31cf e62b 4278 10b9 b7a9 838a caeb b54a
	0x0060:  16b6 1237 2020 2020 2020 2020 2020 e630
	0x0070:  4a1f be65 b9ae e4af 4da9 f524 4a29 b227
	0x0080:  759c 88b5 2020 2020 2020 2020 2020 3c0c
	0x0090:  fce3 bb5e 6b6b 5fc5 e8da e867 95d4 2627
	0x00a0:  eab1 9d40 2020 2020 2020 2020 2020 85a0
	0x00b0:  5b43 cabc 8e65 4084 80a0 2ffa a054 6e03
	0x00c0:  f8c6 2a75 2020 2020 2020 2020 2020
IP 18.4.14.91.5000 > 18.4.14.190.33541: UDP, length 4
	0x0000:  0011 25b3 dbbf 0009 5be0 f790 0800 4500
	0x0010:  0020 008a 4000 4011 f922 1204 0e5b 1204
	0x0020:  0ebe 1388 8305 000c 672d c0f9 0001
IP 18.4.14.190.33541 > 18.4.14.91.5000: UDP, length 228
	0x0000:  0009 5be0 f790 0011 25b3 dbbf 0800 4500
	0x0010:  0100 0000 4000 4011 f8cc 1204 0ebe 1204
	0x0020:  0e5b 8305 1388 00ec 368c dc3a 0007 e8e2
	0x0030:  0d51 99f0 4bb7 737c 0661 5bd7 3091 6fa6
	0x0040:  a213 0d48 2020 2020 2020 2020 2020 27dd
	0x0050:  bf11 230a bcbf 56a8 5988 95e8 8a83 6994
	0x0060:  40ef 1886 2020 2020 2020 2020 2020 f49b
	0x0070:  58d6 cb81 7862 85d0 8b64 11a4 a069 c0c1
	0x0080:  6d12 a78c 2020 2020 2020 2020 2020 315b
	0x0090:  c02d db6a eedc 7ef9 d627 abe0 349b f351
	0x00a0:  0664 ad94 2020 2020 2020 2020 2020 9443
	0x00b0:  98ad f21c 8581 c57a 4efa f887 af19 9b39
	0x00c0:  c4a7 d5b5 2020 2020 2020 2020 2020 6e03
	0x00d0:  527c 7130 f45c 9d12 18e7 c13f 6432 20de
	0x00e0:  4d8a f8d9 2020 2020 2020 2020 2020 76b8
	0x00f0:  e686 9dac 2337 50ae 90b1 423c d753 5624
	0x0100:  c15d 6171 2020 2020 2020 2020 2020
IP 18.4.14.91.5000 > 18.4.14.190.33541: UDP, length 4
	0x0000:  0011 25b3 dbbf 0009 5be0 f790 0800 4500
	0x0010:  0020 008b 4000 4011 f921 1204 0e5b 1204
	0x0020:  0ebe 1388 8305 000c 4bec dc3a 0001
IP 18.4.14.190.33541 > 18.4.14.91.5000: UDP, length 132
	0x0000:  0009 5be0 f790 0011 25b3 dbbf 0800 4500
	0x0010:  00a0 0000 4000 4011 f92c 1204 0ebe 1204
	0x0020:  0e5b 8305 1388 008c 7f85 886a 0004 74f8
	0x0030:  4755 2a75 1c53 ca28 b2a0 5d05 2e3d e57b
	0x0040:  2690 e5f3 2020 2020 2020 2020 2020 2281
	0x0050:  d570 95b2 8df5 d851 bcdc 2273 75a6 6863
	0x0060:  ffe2 8af4 2020 2020 2020 2020 2020 f414
	0x0070:  0897 e11d e788 4185 5b64 b67a 715b 3d14
	0x0080:  f288 4d6a 2020 2020 2020 2020 2020 c5af
	0x0090:  1130 137e bc9d 8365 26db 6ed9 a54d ddde
	0x00a0:  831e 95f7 2020 2020 2020 2020 2020
IP 18.4.14.91.5000 > 18.4.14.190.33541: UDP, length 4
	0x0000:  0011 25b3 dbbf 0009 5be0 f790 0800 4500
	0x0010:  0020 008c 4000 4011 f920 1204 0e5b 1204
	0x0020:  0ebe 1388 8305 000c 9fbc 886a 0001
IP 18.4.14.190.33541 > 18.4.14.91.5000: UDP, length 36
	0x0000:  0009 5be0 f790 0011 25b3 dbbf 0800 4500
	0x0010:  0040 0000 4000 4011 f98c 1204 0ebe 1204
	0x0020:  0e5b 8305 1388 002c cfa4 c033 0001 7036
	0x0030:  028e 8f47 1629 33de 6f6c a57f 21b8 4d09
	0x0040:  5ae8 ccc4 2020 2020 2020 2020 2020
IP 18.4.14.91.5000 > 18.4.14.190.33541: UDP, length 4
	0x0000:  0011 25b3 dbbf 0009 5be0 f790 0800 4500
	0x0010:  0020 008d 4000 4011 f91f 1204 0e5b 1204
	0x0020:  0ebe 1388 8305 000c 67f3 c033 0001
IP 18.4.14.190.33541 > 18.4.14.91.5000: UDP, length 196
	0x0000:  0009 5be0 f790 0011 25b3 dbbf 0800 4500
	0x0010:  00e0 0000 4000 4011 f8ec 1204 0ebe 1204
	0x0020:  0e5b 8305 1388 00cc 235c 16ba 0006 1b54
	0x0030:  7232 ff46 3c54 ba58 ef29 5683 8873 9cb9
	0x0040:  96ed ec08 2020 2020 2020 2020 2020 a53c
	0x0050:  6ac9 429e 1c4f cdbe 9509 013e d282 03eb
	0x0060:  64b2 3795 2020 2020 2020 2020 2020 39a6
	0x0070:  daec d14d eafb e453 27c3 c7f2 302b deeb
	0x0080:  db3c 4939 2020 2020 2020 2020 2020 89e9
	0x0090:  0c16 76c8 605f fe36 31f0 5fd6 6478 7ce5
	0x00a0:  5736 89a1 2020 2020 2020 2020 2020 1650
	0x00b0:  3521 c026 05de 7c55 226c 8bcb eeb4 c509
	0x00c0:  9619 7b62 2020 2020 2020 2020 2020 38f4
	0x00d0:  b5c8 7e1b df2a 1c7f dbfe b00a 45d5 eca7
	0x00e0:  8bb1 2606 2020 2020 2020 2020 2020
IP 18.4.14.91.5000 > 18.4.14.190.33541: UDP, length 4
	0x0000:  0011 25b3 dbbf 0009 5be0 f790 0800 4500
	0x0010:  0020 008e 4000 4011 f91e 1204 0e5b 1204
	0x0020:  0ebe 1388 8305 000c 116d 16ba 0001
IP 18.4.14.190.33541 > 18.4.14.91.5000: UDP, length 228
	0x0000:  0009 5be0 f790 0011 25b3 dbbf 0800 4500
	0x0010:  0100 0000 4000 4011 f8cc 1204 0ebe 1204
	0x0020:  0e5b 8305 1388 00ec e403 2b92 0007 cbbb
	0x0030:  f573 ebfc 98b7 8110 8943 62b9 1e32 004d
	0x0040:  ba59 1a25 2020 2020 2020 2020 2020 abb3
	0x0050:  b364 b11f 35cb dacf 09b6 df49 d577 c351
	0x0060:  b3db 826c 2020 2020 2020 2020 2020 1383
	0x0070:  4a52 a30f ab31 c289 1dc4 ed77 846f 8766
	0x0080:  b547 d697 2020 2020 2020 2020 2020 9e13
	0x0090:  2da7 6e0b 190b d192 40f3 84f2 6fe5 b10a
	0x00a0:  3f01 17ff 2020 2020 2020 2020 2020 5964
	0x00b0:  29bf 77fc f53e 6624 dc26 2c6f fc15 61ba
	0x00c0:  541f 5ce4 2020 2020 2020 2020 2020 f398
	0x00d0:  dcaa 7aca 56f5 070b 7d26 8014 474c 3263
	0x00e0:  f8cf 9581 2020 2020 2020 2020 2020 f33b
	0x00f0:  897e 2a0d ee96 f3aa ce94 7098 a0a2 b636
	0x0100:  2ffe 547f 2020 2020 2020 2020 2020
IP 18.4.14.91.5000 > 18.4.14.190.33541: UDP, length 4
	0x0000:  0011 25b3 dbbf 0009 5be0 f790 0800 4500
	0x0010:  0020 008f 4000 4011 f91d 1204 0e5b 1204
	0x0020:  0ebe 1388 8305 000c fc94 2b92 0001
IP 18.4.14.190.33541 > 18.4.14.91.5000: UDP, length 196
	0x0000:  0009 5be0 f790 0011 25b3 dbbf 0800 4500
	0x0010:  00e0 0000 4000 4011 f8ec 1204 0ebe 1204
	0x0020:  0e5b 8305 1388 00cc e6e3 71d6 0006 9eb7
	0x0030:  4fe3 0b68 19a1 e6f1 5d70 5c55 13ae ee17
	0x0040:  f77d 05c2 2020 2020 2020 2020 2020 5cd0
	0x0050:  2978 b854 5a84 8e41 513b 488f 28fa 7c65
	0x0060:  8b93 b9cd 2020 2020 2020 2020 2020 7c88
	0x0070:  3d28 157f 116c dbd4 f796 01c8 e68a 4044
	0x0080:  a9a1 0a3e 2020 2020 2020 2020 2020 a800
	0x0090:  6282 830d 7608 091e 89ca b8d7 441c a668
	0x00a0:  cfb6 b76c 2020 2020 2020 2020 2020 be89
	0x00b0:  7d1e ce59 6457 bd36 6ffe aa6e f166 dc8b
	0x00c0:  9ae1 201c 2020 2020 2020 2020 2020 ec05
	0x00d0:  52cf 37e3 8c5d be64 7988 b420 0fb4 264c
	0x00e0:  ac27 b919 2020 2020 2020 2020 2020
IP 18.4.14.91.5000 > 18.4.14.190.33541: UDP, length 4
	0x0000:  0011 25b3 dbbf 0009 5be0 f790 0800 4500
	0x0010:  0020 0090 4000 4011 f91c 1204 0e5b 1204
	0x0020:  0ebe 1388 8305 000c b650 71d6 0001
IP 18.4.14.190.33541 > 18.4.14.91.5000: UDP, length 164
	0x0000:  0009 5be0 f790 0011 25b3 dbbf 0800 4500
	0x0010:  00c0 0000 4000 4011 f90c 1204 0ebe 1204
	0x0020:  0e5b 8305 1388 00ac 670b 318c 0005 6d4a
	0x0030:  b6a2 6383 92c1 e159 95b7 fcb5 ab2c 2af3
	0x0040:  c8a5 02b4 2020 2020 2020 2020 2020 e654
	0x0050:  4d4e 6594 efd1 dc4e 7667 9a3b 9e73 85f4
	0x0060:  1b29 b1c5 2020 2020 2020 2020 2020 7091
	0x0070:  646d e6e7 c73b 4283 36dd 125d c145 4024
	0x0080:  2807 aded 2020 2020 2020 2020 2020 797a
	0x0090:  6e37 ca17 8426 f57a 3d9d 0038 972f 1acd
	0x00a0:  ff4a c3ad 2020 2020 2020 2020 2020 0be3
	0x00b0:  db6e b62b c8f4 f3ea 2f5f ad97 03e3 c027
	0x00c0:  87e8 8ca6 2020 2020 2020 2020 2020
IP 18.4.14.91.5000 > 18.4.14.190.33541: UDP, length 4
	0x0000:  0011 25b3 dbbf 0009 5be0 f790 0800 4500
	0x0010:  0020 0091 4000 4011 f91b 1204 0e5b 1204
	0x0020:  0ebe 1388 8305 000c f69a 318c 0001
IP 18.4.14.190.33541 > 18.4.14.91.5000: UDP, length 228
	0x0000:  0009 5be0 f790 0011 25b3 dbbf 0800 4500
	0x0010:  0100 0000 4000 4011 f8cc 1204 0ebe 1204
	0x0020:  0e5b 8305 1388 00ec 70fd b923 0007 1c2e
	0x0030:  eb4d b856 b661 529d f713 568a 51b8 3fb4
	0x0040:  398a 9125 2020 2020 2020 2020 2020 6ca5
	0x0050:  a3b1 0e9b 8835 ce43 0dbf 390a b350 e84d
	0x0060:  631e e8fa 2020 2020 2020 2020 2020 a85a
	0x0070:  33e4 a599 3222 e935 f24e 15eb 1da4 3abb
	0x0080:  adc9 4bcf 2020 2020 2020 2020 2020 bc1c
	0x0090:  b3c9 6a1c 8905 2aa2 0e60 0e56 51da 1c57
	0x00a0:  a3e9 7337 2020 2020 2020 2020 2020 9a71
	0x00b0:  31cf f14a db8a e970 6c4e be7c 4217 68fd
	0x00c0:  40d5 708c 2020 2020 2020 2020 2020 2329
	0x00d0:  8bf9 5821 255a 6498 14c0 e1aa 8d5e e1eb
	0x00e0:  9753 d23f 2020 2020 2020 2020 2020 1010
	0x00f0:  fe94 4326 5c8a f66c 4f47 19b5 f9bd 3312
	0x0100:  bdaa f7c9 2020 2020 2020 2020 2020
IP 18.4.14.91.5000 > 18.4.14.190.33541: UDP, length 4
	0x0000:  0011 25b3 dbbf 0009 5be0 f790 0800 4500
	0x0010:  0020 0092 4000 4011 f91a 1204 0e5b 1204
	0x0020:  0ebe 1388 8305 000c 6f03 b923 0001
IP 18.4.14.190.33541 > 18.4.14.91.5000: UDP, length 164
	0x0000:  0009 5be0 f790 0011 25b3 dbbf 0800 4500
	0x0010:  00c0 0000 4000 4011 f90c 1204 0ebe 1204
	0x0020:  0e5b 8305 1388 00ac 37ee f9bb 0005 f119
	0x0030:  d7e2 67f5 e0df 196a b219 015a 5999 0ac2
	0x0040:  6c3e 8a70 2020 2020 2020 2020 2020 9ed1
	0x0050:  b63b 7401 d2bd 367a 3649 52e6 887b f28c
	0x0060:  abc8 94a3 2020 2020 2020 2020 2020 244b
	0x0070:  475f c81c 9554 a70b efd0 3546 71ae f572
	0x0080:  7c80 6960 2020 2020 2020 2020 2020 3d64
	0x0090:  d98d 9c79 51ab f333 2b17 a98c d4f2 0449
	0x00a0:  a95c 24f4 2020 2020 2020 2020 2020 5a81
	0x00b0:  18d4 78f0 1638 e300 43ca 4dd8 45d7 3136
	0x00c0:  6a6a d21a 2020 2020 2020 2020 2020
IP 18.4.14.91.5000 > 18.4.14.190.33541: UDP, length 4
	0x0000:  0011 25b3 dbbf 0009 5be0 f790 0800 4500
	0x0010:  0020 0093 4000 4011 f919 1204 0e5b 1204
	0x0020:  0ebe 1388 8305 000c 2e6b f9bb 0001
IP 18.4.14.190.33541 > 18.4.14.91.5000: UDP, length 68
	0x0000:  0009 5be0 f790 0011 25b3 dbbf 0800 4500
	0x0010:  0060 0000 4000 4011 f96c 1204 0ebe 1204
	0x0020:  0e5b 8305 1388 004c d1b3 f5f0 0002 bf2d
	0x0030:  3992 6540 e4c9 98e5 0de7 d587 2d6c 30e5
	0x0040:  cf0f 6432 2020 2020 2020 2020 2020 9d3d
	0x0050:  2da8 06d4 7665 a192 4563 2304 6d4f e411
	0x0060:  b874 721e 2020 2020 2020 2020 2020
IP 18.4.14.91.5000 > 18.4.14.190.33541: UDP, length 4
	0x0000:  0011 25b3 dbbf 0009 5be0 f790 0800 4500
	0x0010:  0020 0094 4000 4011 f918 1204 0e5b 1204
	0x0020:  0ebe 1388 8305 000c 3236 f5f0 0001
IP 18.4.14.190.33541 > 18.4.14.91.5000: UDP, length 260
	0x0000:  0009 5be0 f790 0011 25b3 dbbf 0800 4500
	0x0010:  0120 0000 4000 4011 f8ac 1204 0ebe 1204
	0x0020:  0e5b 8305 1388 010c e698 0645 0008 5dd6
	0x0030:  bd46 821e 5e20 ca1d 50ae f7bb 97d5 e175
	0x0040:  34ea ab41 2020 2020 2020 2020 2020 ef0f
	0x0050:  e0cd 2aeb 0269 5031 c43e a69e 72d1 93b5
	0x0060:  e053 6ae9 2020 2020 2020 2020 2020 ba1b
	0x0070:  3df4 c0d0 87a4 3277 20ce 77ed 1714 dbc6
	0x0080:  de42 38e4 2020 2020 2020 2020 2020 16db
	0x0090:  9901 737d a62f 5b5c 42fe 8190 13ec e3ab
	0x00a0:  26e8 7519 2020 2020 2020 2020 2020 f6c9
	0x00b0:  6cb2 efd5 968f 6b66 33af fc43 56ab 24c8
	0x00c0:  8a39 3099 2020 2020 2020 2020 2020 87a2
	0x00d0:  b176 ec9c 2bb5 1159 a42e d3c9 7e92 9aad
	0x00e0:  c1bc 2cfb 2020 2020 2020 2020 2020 a38c
	0x00f0:  1645 0a68 70c1 e524 1e95 31a1 40a8 a5bd
	0x0100:  9a55 302e 2020 2020 2020 2020 2020 bfef
	0x0110:  60b8 e1eb b9b1 8c81 8178 ae96 3dfa 2bd8
	0x0120:  3823 5bd1 2020 2020 2020 2020 2020
IP 18.4.14.91.5000 > 18.4.14.190.33541: UDP, length 4
	0x0000:  0011 25b3 dbbf 0009 5be0 f790 0800 4500
	0x0010:  0020 0095 4000 4011 f917 1204 0e5b 1204
	0x0020:  0ebe 1388 8305 000c 21e2 0645 0001
IP 18.4.14.190.33541 > 18.4.14.91.5000: UDP, length 228
	0x0000:  0009 5be0 f790 0011 25b3 dbbf 0800 4500
	0x0010:  0100 0000 4000 4011 f8cc 1204 0ebe 1204
	0x0020:  0e5b 8305 1388 00ec 7264 ad1e 0007 56b1
	0x0030:  27ca 8ea8 016a 48a0 9989 5d97 484e 46dc
	0x0040:  4af1 e278 2020 2020 2020 2020 2020 bb2a
	0x0050:  5099 4704 e0ae 7551 7c11 6ffc 5fb9 ac0b
	0x0060:  a3fc 6f7f 2020 2020 2020 2020 2020 fc0a
	0x0070:  d824 98a0 685e 792e 23ad cbd7 7dbe 5d27
	0x0080:  711e 9047 2020 2020 2020 2020 2020 eb72
	0x0090:  6336 36f8 bc90 8f9c f27e e305 da5a 47a6
	0x00a0:  a0b4 dd5e 2020 2020 2020 2020 2020 6234
	0x00b0:  9b31 a543 323a 8ef3 8cc8 d253 effe 5fe6
	0x00c0:  50b7 3849 2020 2020 2020 2020 2020 b3c0
	0x00d0:  2e9c b664 77f8 98bd 878a da09 943d 31d9
	0x00e0:  7b46 f248 2020 2020 2020 2020 2020 9df2
	0x00f0:  7f1f f993 de19 33f3 9813 0e3c 9c92 ae99
	0x0100:  5997 3395 2020 2020 2020 2020 2020
IP 18.4.14.91.5000 > 18.4.14.190.33541: UDP, length 4
	0x0000:  0011 25b3 dbbf 0009 5be0 f790 0800 4500
	0x0010:  0020 0096 4000 4011 f916 1204 0e5b 1204
	0x0020:  0ebe 1388 8305 000c 7b08 ad1e 0001
IP 18.4.14.190.33541 > 18.4.14.91.5000: UDP, length 228
	0x0000:  0009 5be0 f790 0011 25b3 dbbf 0800 4500
	0x0010:  0100 0000 4000 4011 f8cc 1204 0ebe 1204
	0x0020:  0e5b 8305 1388 00ec 2c87 82f9 0007 cc88
	0x0030:  63da fc04 581c 025a 2065 6224 5325 d268
	0x0040:  4d03 d3f7 2020 2020 2020 2020 2020 2f5f
	0x0050:  1cd2 b972 9e29 8ad8 c79b 67bc 4d46 10fc
	0x0060:  e9d9 ffc1 2020 2020 2020 2020 2020 2984
	0x0070:  9e5d 3f49 a881 77d3 9374 eaab 21b5 d575
	0x0080:  5ba9 a715 2020 2020 2020 2020 2020 cc5f
	0x0090:  999a 7c6b 9766 019a 17d2 0ad5 6009 0a41
	0x00a0:  f595 cdd3 2020 2020 2020 2020 2020 ce25
	0x00b0:  84e4 1396 eb48 3262 6916 b630 3fd7 bf70
	0x00c0:  27dd 1ba4 2020 2020 2020 2020 2020 d43f
	0x00d0:  e4f2 344d e429 906b de63 d9a3 2fff c525
	0x00e0:  9e37 40b6 2020 2020 2020 2020 2020 1cb5
	0x00f0:  8f9d b63f 4a70 50f1 66dd 14f0 1c66 bcbb
	0x0100:  b03a d9b7 2020 2020 2020 2020 2020
IP 18.4.14.91.5000 > 18.4.14.190.33541: UDP, length 4
	0x0000:  0011 25b3 dbbf 0009 5be0 f790 0800 4500
	0x0010:  0020 0097 4000 4011 f915 1204 0e5b 1204
	0x0020:  0ebe 1388 8305 000c a52d 82f9 0001
IP 18.4.14.190.33541 > 18.4.14.91.5000: UDP, length 100
	0x0000:  0009 5be0 f790 0011 25b3 dbbf 0800 4500
	0x0010:  0080 0000 4000 4011 f94c 1204 0ebe 1204
	0x0020:  0e5b 8305 1388 006c 8200 bca1 0003 971b
	0x0030:  d71b a9b6 2aeb e30f 9488 de15 745d 8cd1
	0x0040:  4e96 a41d 2020 2020 2020 2020 2020 a248
	0x0050:  62f2 222d 9b6f 2434 b150 2059 d15a f1f8
	0x0060:  1b64 8c38 2020 2020 2020 2020 2020 aa15
	0x0070:  7c15 100d 7705 5c99 cf93 80c7 aff9 14db
	0x0080:  d69d 612b 2020 2020 2020 2020 2020
IP 18.4.14.91.5000 > 18.4.14.190.33541: UDP, length 4
	0x0000:  0011 25b3 dbbf 0009 5be0 f790 0800 4500
	0x0010:  0020 0098 4000 4011 f914 1204 0e5b 1204
	0x0020:  0ebe 1388 8305 000c 6b85 bca1 0001
IP 18.4.14.190.33541 > 18.4.14.91.5000: UDP, length 68
	0x0000:  0009 5be0 f790 0011 25b3 dbbf 0800 4500
	0x0010:  0060 0000 4000 4011 f96c 1204 0ebe 1204
	0x0020:  0e5b 8305 1388 004c 2ff5 1298 0002 2b26
	0x0030:  b5e3 5e06 f42e c713 f71b 29c2 e05e 8f18
	0x0040:  bd77 6b49 2020 2020 2020 2020 2020 19eb
	0x0050:  68f4 4cf3 a44e ecf3 560a 2106 2c8e f80b
	0x0060:  804c 7361 2020 2020 2020 2020 2020
IP 18.4.14.91.5000 > 18.4.14.190.33541: UDP, length 4
	0x0000:  0011 25b3 dbbf 0009 5be0 f790 0800 4500
	0x0010:  0020 0099 4000 4011 f913 1204 0e5b 1204
	0x0020:  0ebe 1388 8305 000c 158f 1298 0001
IP 18.4.14.190.33541 > 18.4.14.91.5000: UDP, length 196
	0x0000:  0009 5be0 f790 0011 25b3 dbbf 0800 4500
	0x0010:  00e0 0000 4000 4011 f8ec 1204 0ebe 1204
	0x0020:  0e5b 8305 1388 00cc 9b2b c55d 0006 9857
	0x0030:  4822 468d 048d 1c51 2e44 1eec 2b8d cf1a
	0x0040:  063f 0a8d 2020 2020 2020 2020 2020 1da6
	0x0050:  4bd7 7c9f ab64 87f3 9e19 08b2 58de 0927
	0x0060:  5f32 48ad 2020 2020 2020 2020 2020 8acb
	0x0070:  e5e7 3224 8ce6 bd97 2e33 5b12 3b95 b249
	0x0080:  7a39 7385 2020 2020 2020 2020 2020 0293
	0x0090:  3716 19b6 0f5e cf9d 4bb4 57e2 d8a6 25ef
	0x00a0:  7304 008e 2020 2020 2020 2020 2020 7f62
	0x00b0:  920a f7d2 3511 ac47 d157 4973 0451 67aa
	0x00c0:  583f f3d6 2020 2020 2020 2020 2020 ba13
	0x00d0:  7696 3b56 db9e 3a32 548c 6552 5069 8c1c
	0x00e0:  fb00 2ca5 2020 2020 2020 2020 2020
IP 18.4.14.91.5000 > 18.4.14.190.33541: UDP, length 4
	0x0000:  0011 25b3 dbbf 0009 5be0 f790 0800 4500
	0x0010:  0020 009a 4000 4011 f912 1204 0e5b 1204
	0x0020:  0ebe 1388 8305 000c 62c9 c55d 0001
IP 18.4.14.190.33541 > 18.4.14.91.5000: UDP, length 4
	0x0000:  0009 5be0 f790 0011 25b3 dbbf 0800 4500
	0x0010:  0020 0000 4000 4011 f9ac 1204 0ebe 1204
	0x0020:  0e5b 8305 1388 000c 93b8 946f 0000 0000
	0x0030:  0000 0000 0000 0000 0000 0000
IP 18.4.14.91.5000 > 18.4.14.190.33541: UDP, length 4
	0x0000:  0011 25b3 dbbf 0009 5be0 f790 0800 4500
	0x0010:  0020 009b 4000 4011 f911 1204 0e5b 1204
	0x0020:  0ebe 1388 8305 000c 93b7 946f 0001
IP 18.4.14.190.33541 > 18.4.14.91.5000: UDP, length 132
	0x0000:  0009 5be0 f790 0011 25b3 dbbf 0800 4500
	0x0010:  00a0 0000 4000 4011 f92c 1204 0ebe 1204
	0x0020:  0e5b 8305 1388 008c b34c 61d4 0004 b5b6
	0x0030:  0392 87a9 b71d 939c d7e0 4f5c ab97 89b6
	0x0040:  74d4 6c47 2020 2020 2020 2020 2020 e766
	0x0050:  2f1b 22c6 a2fd 381e c122 6fc5 3998 f54f
	0x0060:  7eb4 ee4b 2020 2020 2020 2020 2020 ac3e
	0x0070:  d0fc 151a a245 5822 3ca6 bc81 a293 c495
	0x0080:  b0bf 5819 2020 2020 2020 2020 2020 fd55
	0x0090:  bc4b 36ca 11d5 69f7 44d6 9805 5921 405f
	0x00a0:  c025 4c55 2020 2020 2020 2020 2020
IP 18.4.14.91.5000 > 18.4.14.190.33541: UDP, length 4
	0x0000:  0011 25b3 dbbf 0009 5be0 f790 0800 4500
	0x0010:  0020 009c 4000 4011 f910 1204 0e5b 1204
	0x0020:  0ebe 1388 8305 000c c652 61d4 0001
IP 18.4.14.190.33541 > 18.4.14.91.5000: UDP, length 260
	0x0000:  0009 5be0 f790 0011 25b3 dbbf 0800 4500
	0x0010:  0120 0000 4000 4011 f8ac 1204 0ebe 1204
	0x0020:  0e5b 8305 1388 010c 6a2f 19a5 0008 2e01
	0x0030:  21d2 413b 5dfd e645 668f 4e54 b41b 92ae
	0x0040:  7032 ceae 2020 2020 2020 2020 2020 3993
	0x0050:  3a9e b46f 2e02 82d8 9ea0 370e f190 bc60
	0x0060:  cc2e 0668 2020 2020 2020 2020 2020 9449
	0x0070:  c674 fbe0 5639 8d53 3dce d65b fdc4 481c
	0x0080:  4e25 24e4 2020 2020 2020 2020 2020 3809
	0x0090:  0d61 bd57 9db1 f166 038a d0de 8401 52a0
	0x00a0:  d497 771d 2020 2020 2020 2020 2020 c966
	0x00b0:  909d e923 494d c5cf af03 2060 45ad d1b6
	0x00c0:  4338 c67c 2020 2020 2020 2020 2020 7c8a
	0x00d0:  bd53 fb6d c001 caab c82e 4b44 5b0f b1d5
	0x00e0:  0674 c67e 2020 2020 2020 2020 2020 3770
	0x00f0:  52bf c7f8 578c 2308 c520 4f1d e10c 3e21
	0x0100:  50f8 f309 2020 2020 2020 2020 2020 bbac
	0x0110:  f154 0536 0aeb 816f 2077 a3b9 7c59 1146
	0x0120:  6153 a7ee 2020 2020 2020 2020 2020
IP 18.4.14.91.5000 > 18.4.14.190.33541: UDP, length 4
	0x0000:  0011 25b3 dbbf 0009 5be0 f790 0800 4500
	0x0010:  0020 009d 4000 4011 f90f 1204 0e5b 1204
	0x0020:  0ebe 1388 8305 000c 0e82 19a5 0001
IP 18.4.14.190.33541 > 18.4.14.91.5000: UDP, length 68
	0x0000:  0009 5be0 f790 0011 25b3 dbbf 0800 4500
	0x0010:  0060 0000 4000 4011 f96c 1204 0ebe 1204
	0x0020:  0e5b 8305 1388 004c e618 9a80 0002 c806
	0x0030:  2cfe 07a5 f7e0 f63a 6ba7 3f7b ee79 8416
	0x0040:  68d0 dd2b 2020 2020 2020 2020 2020 e077
	0x0050:  85f8 f623 9f3c 7345 f9a4 994f 6b87 cc20
	0x0060:  34ad a8f5 2020 2020 2020 2020 2020
IP 18.4.14.91.5000 > 18.4.14.190.33541: UDP, length 4
	0x0000:  0011 25b3 dbbf 0009 5be0 f790 0800 4500
	0x0010:  0020 009e 4000 4011 f90e 1204 0e5b 1204
	0x0020:  0ebe 1388 8305 000c 8da6 9a80 0001
IP 18.4.14.190.33541 > 18.4.14.91.5000: UDP, length 4
	0x0000:  0009 5be0 f790 0011 25b3 dbbf 0800 4500
	0x0010:  0020 0000 4000 4011 f9ac 1204 0ebe 1204
	0x0020:  0e5b 8305 1388 000c cde7 5a40 0000 0000
	0x0030:  0000 0000 0000 0000 0000 0000
IP 18.4.14.91.5000 > 18.4.14.190.33541: UDP, length 4
	0x0000:  0011 25b3 dbbf 0009 5be0 f790 0800 4500
	0x0010:  0020 009f 4000 4011 f90d 1204 0e5b 1204
	0x0020:  0ebe 1388 8305 000c cde6 5a40 0001
IP 18.4.14.190.33541 > 18.4.14.91.5000: UDP, length 228
	0x0000:  0009 5be0 f790 0011 25b3 dbbf 0800 4500
	0x0010:  0100 0000 4000 4011 f8cc 1204 0ebe 1204
	0x0020:  0e5b 8305 1388 00ec 8783 b65c 0007 efe3
	0x0030:  73f2 5940 6805 c0d7 4f56 9355 fccc e681
	0x0040:  571e da28 2020 2020 2020 2020 2020 3df1
	0x0050:  d1a5 dc72 c8f9 01ad 714a 7b08 e360 1f6c
	0x0060:  6e73 6a5f 2020 2020 2020 2020 2020 e0da
	0x0070:  be53 1ee3 bb30 b824 2601 9574 4342 1a41
	0x0080:  e1dd c6ee 2020 2020 2020 2020 2020 279c
	0x0090:  1b9e 77e5 4675 9b33 07dd 78d4 2a49 df90
	0x00a0:  9dc8 d785 2020 2020 2020 2020 2020 0965
	0x00b0:  7b9b 12fe 52d1 1b0c 0f07 feae 1948 6571
	0x00c0:  1037 dd1a 2020 2020 2020 2020 2020 9851
	0x00d0:  1a82 136c 26ce e94c 9efa 3ba8 c309 f1a9
	0x00e0:  be3b 8fb2 2020 2020 2020 2020 2020 6263
	0x00f0:  24d2 1aff bc9d 9232 5e08 8275 3607 8395
	0x0100:  43ff 9617 2020 2020 2020 2020 2020
IP 18.4.14.91.5000 > 18.4.14.190.33541: UDP, length 4
	0x0000:  0011 25b3 dbbf 0009 5be0 f790 0800 4500
	0x0010:  0020 00a0 4000 4011 f90c 1204 0e5b 1204
	0x0020:  0ebe 1388 8305 000c 71ca b65c 0001
IP 18.4.14.190.33541 > 18.4.14.91.5000: UDP, length 164
	0x0000:  0009 5be0 f790 0011 25b3 dbbf 0800 4500
	0x0010:  00c0 0000 4000 4011 f90c 1204 0ebe 1204
	0x0020:  0e5b 8305 1388 00ac edf8 3eff 0005 d449
	0x0030:  a612 9966 2d5d 7285 1c3f e05f d2d9 10a4
	0x0040:  4053 51c7 2020 2020 2020 2020 2020 5b7f
	0x0050:  07d6 4a0e fa79 f478 9e9c 40c7 bba5 f3a5
	0x0060:  60db 9438 2020 2020 2020 2020 2020 6112
	0x0070:  515f 7447 a868 2317 ceb9 2cf6 5219 7918
	0x0080:  97a9 b8a4 2020 2020 2020 2020 2020 5294
	0x0090:  5428 6fc6 4053 6e8c b2eb 4357 75e5 f32e
	0x00a0:  8904 0e35 2020 2020 2020 2020 2020 570f
	0x00b0:  2096 b07d f9f0 4f5a e9b4 37a1 1e01 1968
	0x00c0:  abdc 5569 2020 2020 2020 2020 2020
IP 18.4.14.91.5000 > 18.4.14.190.33541: UDP, length 4
	0x0000:  0011 25b3 dbbf 0009 5be0 f790 0800 4500
	0x0010:  0020 00a1 4000 4011 f90b 1204 0e5b 1204
	0x0020:  0ebe 1388 8305 000c e927 3eff 0001
IP 18.4.14.190.33541 > 18.4.14.91.5000: UDP, length 164
	0x0000:  0009 5be0 f790 0011 25b3 dbbf 0800 4500
	0x0010:  00c0 0000 4000 4011 f90c 1204 0ebe 1204
	0x0020:  0e5b 8305 1388 00ac a24a e16f 0005 4134
	0x0030:  46e0 b8cf 4dbf 18e4 c7fa a237 e668 cf4c
	0x0040:  46e9 16f9 2020 2020 2020 2020 2020 f542
	0x0050:  b6ae 0561 1865 219d d2e8 c871 2a19 56a1
	0x0060:  94f0 da13 2020 2020 2020 2020 2020 ae02
	0x0070:  e044 5282 77e6 fceb a48b c1d3 f2f5 7bfb
	0x0080:  7bf0 e68d 2020 2020 2020 2020 2020 f71c
	0x0090:  552c cd26 f7a0 4993 0449 3984 30b1 2085
	0x00a0:  ea7d 24f9 2020 2020 2020 2020 2020 3d88
	0x00b0:  03de d062 951a 3299 1dce b497 077d da0f
	0x00c0:  519e 7eac 2020 2020 2020 2020 2020
IP 18.4.14.91.5000 > 18.4.14.190.33541: UDP, length 4
	0x0000:  0011 25b3 dbbf 0009 5be0 f790 0800 4500
	0x0010:  0020 00a2 4000 4011 f90a 1204 0e5b 1204
	0x0020:  0ebe 1388 8305 000c 46b7 e16f 0001
IP 18.4.14.190.33541 > 18.4.14.91.5000: UDP, length 4
	0x0000:  0009 5be0 f790 0011 25b3 dbbf 0800 4500
	0x0010:  0020 0000 4000 4011 f9ac 1204 0ebe 1204
	0x0020:  0e5b 8305 1388 000c 318d f69a 0000 0000
	0x0030:  0000 0000 0000 0000 0000 0000
IP 18.4.14.91.5000 > 18.4.14.190.33541: UDP, length 4
	0x0000:  0011 25b3 dbbf 0009 5be0 f790 0800 4500
	0x0010:  0020 00a3 4000 4011 f909 1204 0e5b 1204
	0x0020:  0ebe 1388 8305 000c 318c f69a 0001
IP 18.4.14.190.33541 > 18.4.14.91.5000: UDP, length 100
	0x0000:  0009 5be0 f790 0011 25b3 dbbf 0800 4500
	0x0010:  0080 0000 4000 4011 f94c 1204 0ebe 1204
	0x0020:  0e5b 8305 1388 006c b753 3a5a 0003 e325
	0x0030:  73d2 3bb9 0799 ff3f f649 404f ce68 07e6
	0x0040:  28c4 c2dc 2020 2020 2020 2020 2020 9d3f
	0x0050:  fcd9 e6b6 96f1 5795 3e3f 354c 444c f3f8
	0x0060:  f9bd 21e5 2020 2020 2020 2020 2020 923c
	0x0070:  9aea d8e7 b013 6c47 a2e2 1620 2371 877e
	0x0080:  b330 5169 2020 2020 2020 2020 2020
IP 18.4.14.91.5000 > 18.4.14.190.33541: UDP, length 4
	0x0000:  0011 25b3 dbbf 0009 5be0 f790 0800 4500
	0x0010:  0020 00a4 4000 4011 f908 1204 0e5b 1204
	0x0020:  0ebe 1388 8305 000c edcc 3a5a 0001
IP 18.4.14.190.33541 > 18.4.14.91.5000: UDP, length 36
	0x0000:  0009 5be0 f790 0011 25b3 dbbf 0800 4500
	0x0010:  0040 0000 4000 4011 f98c 1204 0ebe 1204
	0x0020:  0e5b 8305 1388 002c b402 eb07 0001 ad65
	0x0030:  d4e6 8b6f f02a 89c2 db40 e2a7 0c2c a177
	0x0040:  a1d8 532d 2020 2020 2020 2020 2020
IP 18.4.14.91.5000 > 18.4.14.190.33541: UDP, length 4
	0x0000:  0011 25b3 dbbf 0009 5be0 f790 0800 4500
	0x0010:  0020 00a5 4000 4011 f907 1204 0e5b 1204
	0x0020:  0ebe 1388 8305 000c 3d1f eb07 0001
IP 18.4.14.190.33541 > 18.4.14.91.5000: UDP, length 36
	0x0000:  0009 5be0 f790 0011 25b3 dbbf 0800 4500
	0x0010:  0040 0000 4000 4011 f98c 1204 0ebe 1204
	0x0020:  0e5b 8305 1388 002c 0111 5505 0001 d69d
	0x0030:  a25a 3012 efce d642 7936 8c97 80fc 6605
	0x0040:  0d42 c801 2020 2020 2020 2020 2020
IP 18.4.14.91.5000 > 18.4.14.190.33541: UDP, length 4
	0x0000:  0011 25b3 dbbf 0009 5be0 f790 0800 4500
	0x0010:  0020 00a6 4000 4011 f906 1204 0e5b 1204
	0x0020:  0ebe 1388 8305 000c d321 5505 0001
IP 18.4.14.190.33541 > 18.4.14.91.5000: UDP, length 68
	0x0000:  0009 5be0 f790 0011 25b3 dbbf 0800 4500
	0x0010:  0060 0000 4000 4011 f96c 1204 0ebe 1204
	0x0020:  0e5b 8305 1388 004c 0f96 ff9e 0002 7e1a
	0x0030:  2a88 3662 5cea fd91 0740 e296 eb0b dac3
	0x0040:  a7dc d746 2020 2020 2020 2020 2020 882e
	0x0050:  e2b5 5208 45c6 8547 759f 97ea 1cd3 09a5
	0x0060:  e30c cfda 2020 2020 2020 2020 2020
IP 18.4.14.91.5000 > 18.4.14.190.33541: UDP, length 4
	0x0000:  0011 25b3 dbbf 0009 5be0 f790 0800 4500
	0x0010:  0020 00a7 4000 4011 f905 1204 0e5b 1204
	0x0020:  0ebe 1388 8305 000c 2888 ff9e 0001
IP 18.4.14.190.33541 > 18.4.14.91.5000: UDP, length 196
	0x0000:  0009 5be0 f790 0011 25b3 dbbf 0800 4500
	0x0010:  00e0 0000 4000 4011 f8ec 1204 0ebe 1204
	0x0020:  0e5b 8305 1388 00cc 7695 c684 0006 0003
	0x0030:  4ec5 19f8 e74a b6d3 7710 b3ec 3d36 0519
	0x0040:  0559 9832 2020 2020 2020 2020 2020 d9b4
	0x0050:  8de9 8125 87b7 139a f895 ab94 610a 55ae
	0x0060:  f9a4 ea86 2020 2020 2020 2020 2020 3a19
	0x0070:  d363 5914 7d59 e792 9db8 8a6f b940 b854
	0x0080:  6790 5aeb 2020 2020 2020 2020 2020 9363
	0x0090:  35b3 4bfb f5f5 2da4 a951 46e2 2af3 64a6
	0x00a0:  a319 808b 2020 2020 2020 2020 2020 7232
	0x00b0:  6e40 d42d 8fef a2b5 ec81 8dcc 995b fa77
	0x00c0:  fc7c a56f 2020 2020 2020 2020 2020 4e91
	0x00d0:  f81d 8948 c34f 348d 82b1 aa44 fd0a bb42
	0x00e0:  f43b 1469 2020 2020 2020 2020 2020
IP 18.4.14.91.5000 > 18.4.14.190.33541: UDP, length 4
	0x0000:  0011 25b3 dbbf 0009 5be0 f790 0800 4500
	0x0010:  0020 00a8 4000 4011 f904 1204 0e5b 1204
	0x0020:  0ebe 1388 8305 000c 61a2 c684 0001
IP 18.4.14.190.33541 > 18.4.14.91.5000: UDP, length 100
	0x0000:  0009 5be0 f790 0011 25b3 dbbf 0800 4500
	0x0010:  0080 0000 4000 4011 f94c 1204 0ebe 1204
	0x0020:  0e5b 8305 1388 006c c333 a890 0003 664e
	0x0030:  87d4 4610 656f c97e ed68 3a39 dd76 f101
	0x0040:  e315 a724 2020 2020 2020 2020 2020 f424
	0x0050:  3ddf 3ad7 4994 e35c 2ef8 e1cc 53a0 b2d3
	0x0060:  bea2 29f0 2020 2020 2020 2020 2020 0ddd
	0x0070:  881b 39bb 7ce5 f5f5 33f3 f005 7154 01a1
	0x0080:  d049 b2e7 2020 2020 2020 2020 2020
IP 18.4.14.91.5000 > 18.4.14.190.33541: UDP, length 4
	0x0000:  0011 25b3 dbbf 0009 5be0 f790 0800 4500
	0x0010:  0020 00a9 4000 4011 f903 1204 0e5b 1204
	0x0020:  0ebe 1388 8305 000c 7f96 a890 0001
IP 18.4.14.190.33541 > 18.4.14.91.5000: UDP, length 132
	0x0000:  0009 5be0 f790 0011 25b3 dbbf 0800 4500
	0x0010:  00a0 0000 4000 4011 f92c 1204 0ebe 1204
	0x0020:  0e5b 8305 1388 008c 745e 67ac 0004 e5ea
	0x0030:  503a 0a5f 63c1 a80c e0e3 29f0 dda8 38fa
	0x0040:  2dfc 6988 2020 2020 2020 2020 2020 7c3d
	0x0050:  9593 b1b8 3569 6662 52de 6a24 5de3 1508
	0x0060:  1ee0 12bd 2020 2020 2020 2020 2020 a917
	0x0070:  ec9d 66f9 b32b 0e31 4fae 5d55 7001 4520
	0x0080:  af15 0556 2020 2020 2020 2020 2020 3c4b
	0x0090:  329c 2a01 2ddc cf0b bb92 9456 3275 0472
	0x00a0:  3243 dee6 2020 2020 2020 2020 2020
IP 18.4.14.91.5000 > 18.4.14.190.33541: UDP, length 4
	0x0000:  0011 25b3 dbbf 0009 5be0 f790 0800 4500
	0x0010:  0020 00aa 4000 4011 f902 1204 0e5b 1204
	0x0020:  0ebe 1388 8305 000c c07a 67ac 0001
IP 18.4.14.190.33541 > 18.4.14.91.5000: UDP, length 132
	0x0000:  0009 5be0 f790 0011 25b3 dbbf 0800 4500
	0x0010:  00a0 0000 4000 4011 f92c 1204 0ebe 1204
	0x0020:  0e5b 8305 1388 008c 8882 9248 0004 8daf
	0x0030:  8310 c6f0 5b85 24b9 091e 5078 5f66 c154
	0x0040:  5fa4 b32d 2020 2020 2020 2020 2020 17c5
	0x0050:  fc6e e78b 790a 6d39 50c4 e4d2 fcac 48ba
	0x0060:  5603 087f 2020 2020 2020 2020 2020 511f
	0x0070:  19e8 bd5d 9c08 b59e 8587 e5b1 3b4e 74f8
	0x0080:  d9a5 1481 2020 2020 2020 2020 2020 58eb
	0x0090:  5645 2a13 92c7 dbd0 9aef 2368 62d7 07ca
	0x00a0:  c4bb 2ffa 2020 2020 2020 2020 2020
IP 18.4.14.91.5000 > 18.4.14.190.33541: UDP, length 4
	0x0000:  0011 25b3 dbbf 0009 5be0 f790 0800 4500
	0x0010:  0020 00ab 4000 4011 f901 1204 0e5b 1204
	0x0020:  0ebe 1388 8305 000c 95de 9248 0001
IP 18.4.14.190.33541 > 18.4.14.91.5000: UDP, length 36
	0x0000:  0009 5be0 f790 0011 25b3 dbbf 0800 4500
	0x0010:  0040 0000 4000 4011 f98c 1204 0ebe 1204
	0x0020:  0e5b 8305 1388 002c 405d b58a 0001 eb60
	0x0030:  440d 2696 72ae b2f8 b435 83c2 a440 d8e0
	0x0040:  0ec8 51d1 2020 2020 2020 2020 2020
IP 18.4.14.91.5000 > 18.4.14.190.33541: UDP, length 4
	0x0000:  0011 25b3 dbbf 0009 5be0 f790 0800 4500
	0x0010:  0020 00ac 4000 4011 f900 1204 0e5b 1204
	0x0020:  0ebe 1388 8305 000c 729c b58a 0001
IP 18.4.14.190.33541 > 18.4.14.91.5000: UDP, length 196
	0x0000:  0009 5be0 f790 0011 25b3 dbbf 0800 4500
	0x0010:  00e0 0000 4000 4011 f8ec 1204 0ebe 1204
	0x0020:  0e5b 8305 1388 00cc dd0d 052b 0006 95d5
	0x0030:  89ab 802c 0570 595c e9a1 8dcf fe34 9f28
	0x0040:  0ed5 96ac 2020 2020 2020 2020 2020 53f3
	0x0050:  0626 8960 4e5d ebd5 fb9c 90f0 7ff0 a912
	0x0060:  c73b 6af4 2020 2020 2020 2020 2020 14b1
	0x0070:  69e6 5bfe 7230 f95b 6b49 b033 27fe 1a4c
	0x0080:  ab89 1aca 2020 2020 2020 2020 2020 0405
	0x0090:  8cdd 5814 6d2c e754 4359 eb41 f724 dda5
	0x00a0:  7ccf 1600 2020 2020 2020 2020 2020 da38
	0x00b0:  25ba 4308 59f7 c172 f009 1455 11d6 8f0d
	0x00c0:  40fc 948e 2020 2020 2020 2020 2020 86b1
	0x00d0:  d324 28e5 9873 d43a 00cd df66 0712 f1b4
	0x00e0:  ed74 f574 2020 2020 2020 2020 2020
IP 18.4.14.91.5000 > 18.4.14.190.33541: UDP, length 4
	0x0000:  0011 25b3 dbbf 0009 5be0 f790 0800 4500
	0x0010:  0020 00ad 4000 4011 f8ff 1204 0e5b 1204
	0x0020:  0ebe 1388 8305 000c 22fc 052b 0001
IP 18.4.14.190.33541 > 18.4.14.91.5000: UDP, length 68
	0x0000:  0009 5be0 f790 0011 25b3 dbbf 0800 4500
	0x0010:  0060 0000 4000 4011 f96c 1204 0ebe 1204
	0x0020:  0e5b 8305 1388 004c 60bd d829 0002 86b3
	0x0030:  258e 2814 931f c426 3a59 f867 5835 1a07
	0x0040:  5bf2 7cf0 2020 2020 2020 2020 2020 f920
	0x0050:  d7bb e44f b2d8 c334 7b40 beee fecf 1107
	0x0060:  f366 9b59 2020 2020 2020 2020 2020
IP 18.4.14.91.5000 > 18.4.14.190.33541: UDP, length 4
	0x0000:  0011 25b3 dbbf 0009 5be0 f790 0800 4500
	0x0010:  0020 00ae 4000 4011 f8fe 1204 0e5b 1204
	0x0020:  0ebe 1388 8305 000c 4ffd d829 0001
IP 18.4.14.190.33541 > 18.4.14.91.5000: UDP, length 164
	0x0000:  0009 5be0 f790 0011 25b3 dbbf 0800 4500
	0x0010:  00c0 0000 4000 4011 f90c 1204 0ebe 1204
	0x0020:  0e5b 8305 1388 00ac 1080 18af 0005 203f
	0x0030:  6130 c281 e598 191b ecfa a98c 4626 5d5d
	0x0040:  ab48 4fce 2020 2020 2020 2020 2020 cddd
	0x0050:  3c0e b66f e6ad 0e8a efeb b721 326e 1b84
	0x0060:  216d 0fd6 2020 2020 2020 2020 2020 5219
	0x0070:  3f65 59c2 1c16 0949 6bd3 7980 12b0 0812
	0x0080:  18c2 4af2 2020 2020 2020 2020 2020 82e6
	0x0090:  76c3 2d4a bbc5 2dbe b9b9 49c2 d386 859a
	0x00a0:  3c0f 2102 2020 2020 2020 2020 2020 0768
	0x00b0:  a363 9cf5 5ecb 060e 6cbd 561e a8ba 3030
	0x00c0:  78c2 873d 2020 2020 2020 2020 2020
IP 18.4.14.91.5000 > 18.4.14.190.33541: UDP, length 4
	0x0000:  0011 25b3 dbbf 0009 5be0 f790 0800 4500
	0x0010:  0020 00af 4000 4011 f8fd 1204 0e5b 1204
	0x0020:  0ebe 1388 8305 000c 0f78 18af 0001
IP 18.4.14.190.33541 > 18.4.14.91.5000: UDP, length 36
	0x0000:  0009 5be0 f790 0011 25b3 dbbf 0800 4500
	0x0010:  0040 0000 4000 4011 f98c 1204 0ebe 1204
	0x0020:  0e5b 8305 1388 002c be59 8102 0001 f3eb
	0x0030:  f653 c5a7 8553 9eb6 13b5 b30e 8979 7749
	0x0040:  374f 7522 2020 2020 2020 2020 2020
IP 18.4.14.91.5000 > 18.4.14.190.33541: UDP, length 4
	0x0000:  0011 25b3 dbbf 0009 5be0 f790 0800 4500
	0x0010:  0020 00b0 4000 4011 f8fc 1204 0e5b 1204
	0x0020:  0ebe 1388 8305 000c a724 8102 0001
IP 18.4.14.190.33541 > 18.4.14.91.5000: UDP, length 164
	0x0000:  0009 5be0 f790 0011 25b3 dbbf 0800 4500
	0x0010:  00c0 0000 4000 4011 f90c 1204 0ebe 1204
	0x0020:  0e5b 8305 1388 00ac fa5c 4468 0005 45f2
	0x0030:  6586 c37e 748c 5aab d3e1 0a37 d102 f69c
	0x0040:  adae b47a 2020 2020 2020 2020 2020 3f01
	0x0050:  9e58 32eb 0d60 5875 599b b3dc 6500 385d
	0x0060:  69ba 56c5 2020 2020 2020 2020 2020 6327
	0x0070:  cde0 4e8e 51e2 4d16 aebf f53c c2b8 b84f
	0x0080:  ba8e 83dd 2020 2020 2020 2020 2020 ed97
	0x0090:  a8da ab09 5f62 8ea9 2605 96b8 77ca d82b
	0x00a0:  1753 8d5e 2020 2020 2020 2020 2020 1c43
	0x00b0:  4f11 72f5 27f8 153e f8d9 4c13 05e2 43bc
	0x00c0:  63f5 328a 2020 2020 2020 2020 2020
IP 18.4.14.91.5000 > 18.4.14.190.33541: UDP, length 4
	0x0000:  0011 25b3 dbbf 0009 5be0 f790 0800 4500
	0x0010:  0020 00b1 4000 4011 f8fb 1204 0e5b 1204
	0x0020:  0ebe 1388 8305 000c e3be 4468 0001
IP 18.4.14.190.33541 > 18.4.14.91.5000: UDP, length 132
	0x0000:  0009 5be0 f790 0011 25b3 dbbf 0800 4500
	0x0010:  00a0 0000 4000 4011 f92c 1204 0ebe 1204
	0x0020:  0e5b 8305 1388 008c 2d4f d8e9 0004 797f
	0x0030:  c95e 61b6 0f6a ed4a 68f9 caf5 34bc cd17
	0x0040:  cbfe 6045 2020 2020 2020 2020 2020 2c43
	0x0050:  62be b92e 5fc8 65b7 563d 86fe 1b4d 6905
	0x0060:  b577 0d36 2020 2020 2020 2020 2020 9edf
	0x0070:  8ac1 dff2 b7d2 820b 3782 a1c0 76ae 8f38
	0x0080:  d4e0 a589 2020 2020 2020 2020 2020 63b4
	0x0090:  cdb1 e39e d62a 7b4b 27dd 796a 0bc2 59b6
	0x00a0:  3ca2 2247 2020 2020 2020 2020 2020
IP 18.4.14.91.5000 > 18.4.14.190.33541: UDP, length 4
	0x0000:  0011 25b3 dbbf 0009 5be0 f790 0800 4500
	0x0010:  0020 00b2 4000 4011 f8fa 1204 0e5b 1204
	0x0020:  0ebe 1388 8305 000c 4f3d d8e9 0001
IP 18.4.14.190.33541 > 18.4.14.91.5000: UDP, length 228
	0x0000:  0009 5be0 f790 0011 25b3 dbbf 0800 4500
	0x0010:  0100 0000 4000 4011 f8cc 1204 0ebe 1204
	0x0020:  0e5b 8305 1388 00ec 1efb a649 0007 17e4
	0x0030:  7203 0285 9e67 70b6 36cc 666f b612 f0c2
	0x0040:  0d23 6913 2020 2020 2020 2020 2020 42bb
	0x0050:  d498 8a50 baf9 c526 42bf ed6f 35c7 81bb
	0x0060:  d12d 988a 2020 2020 2020 2020 2020 2b93
	0x0070:  5fb4 c1f9 6483 8977 2de5 66c6 97be e0e9
	0x0080:  5750 f680 2020 2020 2020 2020 2020 d652
	0x0090:  a667 27df 9755 2657 72b3 8a0d 2e59 2445
	0x00a0:  7315 dee7 2020 2020 2020 2020 2020 cb44
	0x00b0:  d1fd 5902 4a28 e735 4dd7 7a39 ec67 c560
	0x00c0:  059b 2434 2020 2020 2020 2020 2020 474d
	0x00d0:  c2f0 e467 4fab dcc6 7748 d7f9 157f 5353
	0x00e0:  254b 0183 2020 2020 2020 2020 2020 d058
	0x00f0:  cd57 4eef 7302 8b58 0252 e091 80e6 14b7
	0x0100:  d9d2 971b 2020 2020 2020 2020 2020
IP 18.4.14.91.5000 > 18.4.14.190.33541: UDP, length 4
	0x0000:  0011 25b3 dbbf 0009 5be0 f790 0800 4500
	0x0010:  0020 00b3 4000 4011 f8f9 1204 0e5b 1204
	0x0020:  0ebe 1388 8305 000c 81dd a649 0001
IP 18.4.14.190.33541 > 18.4.14.91.5000: UDP, length 132
	0x0000:  0009 5be0 f790 0011 25b3 dbbf 0800 4500
	0x0010:  00a0 0000 4000 4011 f92c 1204 0ebe 1204
	0x0020:  0e5b 8305 1388 008c eb2e 5dc0 0004 6a89
	0x0030:  14f5 2e42 a026 e210 0fd8 52be 4287 3e8b
	0x0040:  4cf3 a356 2020 2020 2020 2020 2020 eb0e
	0x0050:  013f 6bbb 050a 1d59 4419 bd2f dfe9 b95d
	0x0060:  28cd 6091 2020 2020 2020 2020 2020 33ee
	0x0070:  a628 99c5 d07b 4433 ea98 cbb9 c855 9acb
	0x0080:  e225 ee03 2020 2020 2020 2020 2020 ff52
	0x0090:  032d 0bf3 8fb9 05bc 86df 2344 f13d 761b
	0x00a0:  81d1 100b 2020 2020 2020 2020 2020
IP 18.4.14.91.5000 > 18.4.14.190.33541: UDP, length 4
	0x0000:  0011 25b3 dbbf 0009 5be0 f790 0800 4500
	0x0010:  0020 00b4 4000 4011 f8f8 1204 0e5b 1204
	0x0020:  0ebe 1388 8305 000c ca66 5dc0 0001
IP 18.4.14.190.33541 > 18.4.14.91.5000: UDP, length 132
	0x0000:  0009 5be0 f790 0011 25b3 dbbf 0800 4500
	0x0010:  00a0 0000 4000 4011 f92c 1204 0ebe 1204
	0x0020:  0e5b 8305 1388 008c 449a 60e5 0004 065d
	0x0030:  0fef 66bb 3e01 724d c45f 7bb9 a328 d7f3
	0x0040:  c1d8 506c 2020 2020 2020 2020 2020 684c
	0x0050:  2dc8 1d0b b4cc 0c02 f345 60cf 5079 d77c
	0x0060:  08b4 6bd2 2020 2020 2020 2020 2020 d705
	0x0070:  be6d 4491 3023 853d 6d2a 2bd5 fe02 8635
	0x0080:  6266 36e9 2020 2020 2020 2020 2020 6b26
	0x0090:  d750 a704 0965 cbc6 68c6 1635 ab60 e14c
	0x00a0:  a295 ecfc 2020 2020 2020 2020 2020
IP 18.4.14.91.5000 > 18.4.14.190.33541: UDP, length 4
	0x0000:  0011 25b3 dbbf 0009 5be0 f790 0800 4500
	0x0010:  0020 00b5 4000 4011 f8f7 1204 0e5b 1204
	0x0020:  0ebe 1388 8305 000c c741 60e5 0001
IP 18.4.14.190.33541 > 18.4.14.91.5000: UDP, length 36
	0x0000:  0009 5be0 f790 0011 25b3 dbbf 0800 4500
	0x0010:  0040 0000 4000 4011 f98c 1204 0ebe 1204
	0x0020:  0e5b 8305 1388 002c 802c 2d8c 0001 00bb
	0x0030:  4def d475 d7dc 9663 6a88 91c1 9698 0dba
	0x0040:  45ff 6191 2020 2020 2020 2020 2020
IP 18.4.14.91.5000 > 18.4.14.190.33541: UDP, length 4
	0x0000:  0011 25b3 dbbf 0009 5be0 f790 0800 4500
	0x0010:  0020 00b6 4000 4011 f8f6 1204 0e5b 1204
	0x0020:  0ebe 1388 8305 000c fa9a 2d8c 0001
IP 18.4.14.190.33541 > 18.4.14.91.5000: UDP, length 196
	0x0000:  0009 5be0 f790 0011 25b3 dbbf 0800 4500
	0x0010:  00e0 0000 4000 4011 f8ec 1204 0ebe 1204
	0x0020:  0e5b 8305 1388 00cc c721 e60f 0006 0308
	0x0030:  a9d8 a7f6 5e5e f0f1 42b3 b8f6 58ce fac6
	0x0040:  ca8b 0c23 2020 2020 2020 2020 2020 1ffd
	0x0050:  e44b a3f5 463f d273 904f 32e8 78ab 351b
	0x0060:  c85e 7030 2020 2020 2020 2020 2020 77dd
	0x0070:  885d 4bae 3288 f7da 7423 d9ab e119 d645
	0x0080:  b647 cb0d 2020 2020 2020 2020 2020 7575
	0x0090:  005c fa56 21c5 b703 e6bb f190 f0ef c7fc
	0x00a0:  0df3 1d42 2020 2020 2020 2020 2020 5b37
	0x00b0:  4f84 12a8 9d75 13b1 e716 fe69 01a4 34d8
	0x00c0:  7fee 9178 2020 2020 2020 2020 2020 3171
	0x00d0:  0906 d0f5 0fa3 bbcf 9b57 7777 ad52 c0c1
	0x00e0:  2685 64af 2020 2020 2020 2020 2020
IP 18.4.14.91.5000 > 18.4.14.190.33541: UDP, length 4
	0x0000:  0011 25b3 dbbf 0009 5be0 f790 0800 4500
	0x0010:  0020 00b7 4000 4011 f8f5 1204 0e5b 1204
	0x0020:  0ebe 1388 8305 000c 4217 e60f 0001
IP 18.4.14.190.33541 > 18.4.14.91.5000: UDP, length 100
	0x0000:  0009 5be0 f790 0011 25b3 dbbf 0800 4500
	0x0010:  0080 0000 4000 4011 f94c 1204 0ebe 1204
	0x0020:  0e5b 8305 1388 006c 6c9a 80ec 0003 e0e2
	0x0030:  dd15 f3b3 6f7e fd9e 9a1f 2388 ecf3 d5b2
	0x0040:  195d f32e 2020 2020 2020 2020 2020 37e5
	0x0050:  62b6 4497 5475 cf41 df44 f78d cba3 9141
	0x0060:  6e94 a283 2020 2020 2020 2020 2020 f50f
	0x0070:  90c1 a469 4a17 e684 97d6 08dc d983 0261
	0x0080:  9fc3 ed6a 2020 2020 2020 2020 2020
IP 18.4.14.91.5000 > 18.4.14.190.33541: UDP, length 4
	0x0000:  0011 25b3 dbbf 0009 5be0 f790 0800 4500
	0x0010:  0020 00b8 4000 4011 f8f4 1204 0e5b 1204
	0x0020:  0ebe 1388 8305 000c a73a 80ec 0001
IP 18.4.14.190.33541 > 18.4.14.91.5000: UDP, length 36
	0x0000:  0009 5be0 f790 0011 25b3 dbbf 0800 4500
	0x0010:  0040 0000 4000 4011 f98c 1204 0ebe 1204
	0x0020:  0e5b 8305 1388 002c ad31 9cf5 0001 dbbb
	0x0030:  cb4c e7ff c1d2 19b9 efb4 eb83 575d 5fca
	0x0040:  7de0 c249 2020 2020 2020 2020 2020
IP 18.4.14.91.5000 > 18.4.14.190.33541: UDP, length 4
	0x0000:  0011 25b3 dbbf 0009 5be0 f790 0800 4500
	0x0010:  0020 00b9 4000 4011 f8f3 1204 0e5b 1204
	0x0020:  0ebe 1388 8305 000c 8b31 9cf5 0001
IP 18.4.14.190.33541 > 18.4.14.91.5000: UDP, length 164
	0x0000:  0009 5be0 f790 0011 25b3 dbbf 0800 4500
	0x0010:  00c0 0000 4000 4011 f90c 1204 0ebe 1204
	0x0020:  0e5b 8305 1388 00ac 9744 646f 0005 75c5
	0x0030:  2a18 217e 6f23 3269 9e23 bc7e 5958 edfc
	0x0040:  a202 8e2f 2020 2020 2020 2020 2020 3149
	0x0050:  703d cbd1 c33f b17f 4cd4 cf1d ad9c 60bf
	0x0060:  ffc5 843c 2020 2020 2020 2020 2020 164d
	0x0070:  f9ac 2d6a bf52 1752 908e 538f e11a 49fc
	0x0080:  0bd4 bf01 2020 2020 2020 2020 2020 2507
	0x0090:  2489 1d54 f14a c92d ba17 3297 9a8c d47f
	0x00a0:  0172 358c 2020 2020 2020 2020 2020 50f0
	0x00b0:  4283 3078 38b1 88b4 14a1 7583 ad6b 594b
	0x00c0:  119d 789c 2020 2020 2020 2020 2020
IP 18.4.14.91.5000 > 18.4.14.190.33541: UDP, length 4
	0x0000:  0011 25b3 dbbf 0009 5be0 f790 0800 4500
	0x0010:  0020 00ba 4000 4011 f8f2 1204 0e5b 1204
	0x0020:  0ebe 1388 8305 000c c3b7 646f 0001
IP 18.4.14.190.33541 > 18.4.14.91.5000: UDP, length 36
	0x0000:  0009 5be0 f790 0011 25b3 dbbf 0800 4500
	0x0010:  0040 0000 4000 4011 f98c 1204 0ebe 1204
	0x0020:  0e5b 8305 1388 002c 9cab 978f 0001 818f
	0x0030:  db34 b290 0b7d 5395 8c51 32c9 4323 577c
	0x0040:  1ef6 6bf3 2020 2020 2020 2020 2020
IP 18.4.14.91.5000 > 18.4.14.190.33541: UDP, length 4
	0x0000:  0011 25b3 dbbf 0009 5be0 f790 0800 4500
	0x0010:  0020 00bb 4000 4011 f8f1 1204 0e5b 1204
	0x0020:  0ebe 1388 8305 000c 9097 978f 0001
IP 18.4.14.190.33541 > 18.4.14.91.5000: UDP, length 132
	0x0000:  0009 5be0 f790 0011 25b3 dbbf 0800 4500
	0x0010:  00a0 0000 4000 4011 f92c 1204 0ebe 1204
	0x0020:  0e5b 8305 1388 008c 383c 46ea 0004 7f62
	0x0030:  9f7e 4cdd 2d88 a401 6214 8107 cac2 14e0
	0x0040:  22e8 56d0 2020 2020 2020 2020 2020 d693
	0x0050:  2fbe d6b3 e105 18d3 134d e0b2 46fb 281e
	0x0060:  1e7a 23c0 2020 2020 2020 2020 2020 3f4e
	0x0070:  341a 0ea0 a3a6 e9e4 8499 d88c 06fc 84c3
	0x0080:  11b2 df67 2020 2020 2020 2020 2020 2163
	0x0090:  a483 b38b 5855 f1db 635f c2dc c92e 8e22
	0x00a0:  ae8e 5635 2020 2020 2020 2020 2020
IP 18.4.14.91.5000 > 18.4.14.190.33541: UDP, length 4
	0x0000:  0011 25b3 dbbf 0009 5be0 f790 0800 4500
	0x0010:  0020 00bc 4000 4011 f8f0 1204 0e5b 1204
	0x0020:  0ebe 1388 8305 000c e13c 46ea 0001
IP 18.4.14.190.33541 > 18.4.14.91.5000: UDP, length 100
	0x0000:  0009 5be0 f790 0011 25b3 dbbf 0800 4500
	0x0010:  0080 0000 4000 4011 f94c 1204 0ebe 1204
	0x0020:  0e5b 8305 1388 006c 2636 f79d 0003 f1d2
	0x0030:  c269 e514 c16d 0390 26f5 aa0e 34eb 9595
	0x0040:  94fb cbfd 2020 2020 2020 2020 2020 1940
	0x0050:  e707 1042 30b7 3d58 1a89 b6d6 1766 3af4
	0x0060:  19bf 10e2 2020 2020 2020 2020 2020 bc0f
	0x0070:  3ab3 d148 590f 6bc4 09a9 7c9f 3c47 98b3
	0x0080:  d82a 3f9f 2020 2020 2020 2020 2020
IP 18.4.14.91.5000 > 18.4.14.190.33541: UDP, length 4
	0x0000:  0011 25b3 dbbf 0009 5be0 f790 0800 4500
	0x0010:  0020 00bd 4000 4011 f8ef 1204 0e5b 1204
	0x0020:  0ebe 1388 8305 000c 3089 f79d 0001
IP 18.4.14.190.33541 > 18.4.14.91.5000: UDP, length 164
	0x0000:  0009 5be0 f790 0011 25b3 dbbf 0800 4500
	0x0010:  00c0 0000 4000 4011 f90c 1204 0ebe 1204
	0x0020:  0e5b 8305 1388 00ac fd35 0580 0005 3ef8
	0x0030:  f552 2c93 bccc b361 5e30 4002 495f 5334
	0x0040:  6d2f 3c5b 2020 2020 2020 2020 2020 b46e
	0x0050:  70fa 822f 156e f2b7 32e4 60f6 88c7 9af2
	0x0060:  95cd 64eb 2020 2020 2020 2020 2020 a68d
	0x0070:  4692 a27a 0d23 e5c0 4398 d324 f943 5d47
	0x0080:  8c81 ff63 2020 2020 2020 2020 2020 c06f
	0x0090:  73b6 e2b0 2fae a238 5f70 be58 8a0a e50c
	0x00a0:  aecd f5e0 2020 2020 2020 2020 2020 57ad
	0x00b0:  b758 fc5b 300c c9dc 4834 79b6 6390 306f
	0x00c0:  1c34 dc3c 2020 2020 2020 2020 2020
IP 18.4.14.91.5000 > 18.4.14.190.33541: UDP, length 4
	0x0000:  0011 25b3 dbbf 0009 5be0 f790 0800 4500
	0x0010:  0020 00be 4000 4011 f8ee 1204 0e5b 1204
	0x0020:  0ebe 1388 8305 000c 22a7 0580 0001
IP 18.4.14.190.33541 > 18.4.14.91.5000: UDP, length 36
	0x0000:  0009 5be0 f790 0011 25b3 dbbf 0800 4500
	0x0010:  0040 0000 4000 4011 f98c 1204 0ebe 1204
	0x0020:  0e5b 8305 1388 002c c1a1 6d6c 0001 ea01
	0x0030:  4ae5 58a3 05b1 d0d8 c07c ce0e 6544 e5be
	0x0040:  a1f9 789b 2020 2020 2020 2020 2020
IP 18.4.14.91.5000 > 18.4.14.190.33541: UDP, length 4
	0x0000:  0011 25b3 dbbf 0009 5be0 f790 0800 4500
	0x0010:  0020 00bf 4000 4011 f8ed 1204 0e5b 1204
	0x0020:  0ebe 1388 8305 000c baba 6d6c 0001
IP 18.4.14.190.33541 > 18.4.14.91.5000: UDP, length 164
	0x0000:  0009 5be0 f790 0011 25b3 dbbf 0800 4500
	0x0010:  00c0 0000 4000 4011 f90c 1204 0ebe 1204
	0x0020:  0e5b 8305 1388 00ac 37f5 59a4 0005 44cc
	0x0030:  7c56 556c 6f30 6846 27a1 3609 3a6d 4d06
	0x0040:  a99a bfea 2020 2020 2020 2020 2020 0de3
	0x0050:  0b89 88c9 ee8e c8ce b47f e26f 7f9e c097
	0x0060:  ae5d 36b9 2020 2020 2020 2020 2020 928c
	0x0070:  aa3e 96b2 bdc7 982c 8c7a 747f 0e63 94b7
	0x0080:  8871 c412 2020 2020 2020 2020 2020 6778
	0x0090:  ef61 4f3e c086 dbde 294d c416 ab38 f952
	0x00a0:  e1f3 c0b1 2020 2020 2020 2020 2020 e8f4
	0x00b0:  05ad af16 8582 7a17 923c b09c a14c f540
	0x00c0:  8f9b 8839 2020 2020 2020 2020 2020
IP 18.4.14.91.5000 > 18.4.14.190.33541: UDP, length 4
	0x0000:  0011 25b3 dbbf 0009 5be0 f790 0800 4500
	0x0010:  0020 00c0 4000 4011 f8ec 1204 0e5b 1204
	0x0020:  0ebe 1388 8305 000c ce82 59a4 0001
IP 18.4.14.190.33541 > 18.4.14.91.5000: UDP, length 164
	0x0000:  0009 5be0 f790 0011 25b3 dbbf 0800 4500
	0x0010:  00c0 0000 4000 4011 f90c 1204 0ebe 1204
	0x0020:  0e5b 8305 1388 00ac bdb6 8a19 0005 8d87
	0x0030:  5633 2198 5243 dbb0 4d4f bff4 90f1 228c
	0x0040:  3c0b 766b 2020 2020 2020 2020 2020 27b1
	0x0050:  cbef 33c5 74fc 5ecb 9ff0 3edc 3175 5fd3
	0x0060:  b9bc 6997 2020 2020 2020 2020 2020 2758
	0x0070:  9360 e5f7 7598 feea 0c30 199d d24a 29fb
	0x0080:  944c 8315 2020 2020 2020 2020 2020 7357
	0x0090:  64d1 cc8f 65a5 29d0 3288 1a50 923b 9ae4
	0x00a0:  d1be 9fc9 2020 2020 2020 2020 2020 3870
	0x00b0:  414d 4cc1 b39c e7be d183 4745 6d76 48c1
	0x00c0:  6467 833d 2020 2020 2020 2020 2020
IP 18.4.14.91.5000 > 18.4.14.190.33541: UDP, length 4
	0x0000:  0011 25b3 dbbf 0009 5be0 f790 0800 4500
	0x0010:  0020 00c1 4000 4011 f8eb 1204 0e5b 1204
	0x0020:  0ebe 1388 8305 000c 9e0d 8a19 0001
IP 18.4.14.190.33541 > 18.4.14.91.5000: UDP, length 100
	0x0000:  0009 5be0 f790 0011 25b3 dbbf 0800 4500
	0x0010:  0080 0000 4000 4011 f94c 1204 0ebe 1204
	0x0020:  0e5b 8305 1388 006c 57fe 0588 0003 09ab
	0x0030:  feff 8c52 eb35 3c2d 93af 6cff 324c 9936
	0x0040:  27c0 b63c 2020 2020 2020 2020 2020 3dc9
	0x0050:  d8bc 6a59 ae31 939e 32b2 4076 aa91 b0cf
	0x0060:  632e 6707 2020 2020 2020 2020 2020 98cb
	0x0070:  dada a979 fd58 fee7 a17a df57 9013 7260
	0x0080:  f5e9 936c 2020 2020 2020 2020 2020
IP 18.4.14.91.5000 > 18.4.14.190.33541: UDP, length 4
	0x0000:  0011 25b3 dbbf 0009 5be0 f790 0800 4500
	0x0010:  0020 00c2 4000 4011 f8ea 1204 0e5b 1204
	0x0020:  0ebe 1388 8305 000c 229f 0588 0001
IP 18.4.14.190.33541 > 18.4.14.91.5000: UDP, length 100
	0x0000:  0009 5be0 f790 0011 25b3 dbbf 0800 4500
	0x0010:  0080 0000 4000 4011 f94c 1204 0ebe 1204
	0x0020:  0e5b 8305 1388 006c eb3b 55b7 0003 dab6
	0x0030:  446f c8f4 8921 2fd2 7163 2522 8696 0568
	0x0040:  9e8e d433 2020 2020 2020 2020 2020 c1fc
	0x0050:  daac ca19 9405 7346 0d5a 431d ce10 1135
	0x0060:  98c2 caec 2020 2020 2020 2020 2020 f8e9
	0x0070:  d95e ad0d 7280 8526 2dee 6164 8383 966c
	0x0080:  a917 0367 2020 2020 2020 2020 2020
IP 18.4.14.91.5000 > 18.4.14.190.33541: UDP, length 4
	0x0000:  0011 25b3 dbbf 0009 5be0 f790 0800 4500
	0x0010:  0020 00c3 4000 4011 f8e9 1204 0e5b 1204
	0x0020:  0ebe 1388 8305 000c d26f 55b7 0001
IP 18.4.14.190.33541 > 18.4.14.91.5000: UDP, length 228
	0x0000:  0009 5be0 f790 0011 25b3 dbbf 0800 4500
	0x0010:  0100 0000 4000 4011 f8cc 1204 0ebe 1204
	0x0020:  0e5b 8305 1388 00ec 957b 5f37 0007 024f
	0x0030:  ae46 adbc ea93 b6b0 6f29 c7bc 146a 1280
	0x0040:  692c c27b 2020 2020 2020 2020 2020 8c70
	0x0050:  0639 105f a843 b3c6 c3bf 5fc3 5409 454e
	0x0060:  ca33 c380 2020 2020 2020 2020 2020 4f61
	0x0070:  7713 e7c6 4072 66e5 bb4c a473 c134 cb11
	0x0080:  aea3 4068 2020 2020 2020 2020 2020 91d7
	0x0090:  6deb 9b4f f049 3862 ecd6 56fc 5226 a943
	0x00a0:  4fc9 c575 2020 2020 2020 2020 2020 d1af
	0x00b0:  5694 b395 f5c5 2a92 e7c5 f3c4 85f3 60e2
	0x00c0:  54ee c4d7 2020 2020 2020 2020 2020 fb16
	0x00d0:  524f 7e18 78b7 c973 0180 66b1 0af5 5f64
	0x00e0:  f1bd ed60 2020 2020 2020 2020 2020 7707
	0x00f0:  ae95 37fa 4539 96f5 5e8f 3659 b479 c57a
	0x0100:  6b5c 660a 2020 2020 2020 2020 2020
IP 18.4.14.91.5000 > 18.4.14.190.33541: UDP, length 4
	0x0000:  0011 25b3 dbbf 0009 5be0 f790 0800 4500
	0x0010:  0020 00c4 4000 4011 f8e8 1204 0e5b 1204
	0x0020:  0ebe 1388 8305 000c c8ef 5f37 0001
IP 18.4.14.190.33541 > 18.4.14.91.5000: UDP, length 100
	0x0000:  0009 5be0 f790 0011 25b3 dbbf 0800 4500
	0x0010:  0080 0000 4000 4011 f94c 1204 0ebe 1204
	0x0020:  0e5b 8305 1388 006c 14cb e53e 0003 dbbe
	0x0030:  5f03 b38f c80b 6ba7 7276 1875 5405 5274
	0x0040:  1809 21c2 2020 2020 2020 2020 2020 957d
	0x0050:  46ff 0ff1 5eae 638b 8820 386a b9dc 6501
	0x0060:  559e 6d74 2020 2020 2020 2020 2020 fbd6
	0x0070:  2baa 682c 1ec8 b5a9 aa9a bffc cd2d 9e36
	0x0080:  7d90 b574 2020 2020 2020 2020 2020
IP 18.4.14.91.5000 > 18.4.14.190.33541: UDP, length 4
	0x0000:  0011 25b3 dbbf 0009 5be0 f790 0800 4500
	0x0010:  0020 00c5 4000 4011 f8e7 1204 0e5b 1204
	0x0020:  0ebe 1388 8305 000c 42e8 e53e 0001
IP 18.4.14.190.33541 > 18.4.14.91.5000: UDP, length 4
	0x0000:  0009 5be0 f790 0011 25b3 dbbf 0800 4500
	0x0010:  0020 0000 4000 4011 f9ac 1204 0ebe 1204
	0x0020:  0e5b 8305 1388 000c 0918 1f10 0000 0000
	0x0030:  0000 0000 0000 0000 0000 0000
IP 18.4.14.91.5000 > 18.4.14.190.33541: UDP, length 4
	0x0000:  0011 25b3 dbbf 0009 5be0 f790 0800 4500
	0x0010:  0020 00c6 4000 4011 f8e6 1204 0e5b 1204
	0x0020:  0ebe 1388 8305 000c 0917 1f10 0001
IP 18.4.14.190.33541 > 18.4.14.91.5000: UDP, length 164
	0x0000:  0009 5be0 f790 0011 25b3 dbbf 0800 4500
	0x0010:  00c0 0000 4000 4011 f90c 1204 0ebe 1204
	0x0020:  0e5b 8305 1388 00ac f35e 3b3c 0005 f201
	0x0030:  ee71 5042 65b0 ffb3 e5a5 3eb8 8db1 b789
	0x0040:  7638 72d5 2020 2020 2020 2020 2020 f320
	0x0050:  d4bb adc2 1d8f 10ca 779c 6bf4 4834 1648
	0x0060:  1be1 dc14 2020 2020 2020 2020 2020 3f10
	0x0070:  c569 b901 c8a5 1394 ba4b 7c23 3a10 2ef1
	0x0080:  391c fada 2020 2020 2020 2020 2020 9ab5
	0x0090:  7785 4d66 e247 14c8 d462 9ad1 8e9c 941b
	0x00a0:  d34d b8ed 2020 2020 2020 2020 2020 c4e9
	0x00b0:  acd0 6ce2 5959 2a01 900f 66fa 4c87 1bd5
	0x00c0:  429e 2874 2020 2020 2020 2020 2020
IP 18.4.14.91.5000 > 18.4.14.190.33541: UDP, length 4
	0x0000:  0011 25b3 dbbf 0009 5be0 f790 0800 4500
	0x0010:  0020 00c7 4000 4011 f8e5 1204 0e5b 1204
	0x0020:  0ebe 1388 8305 000c ecea 3b3c 0001

