IP shannon.local.53900 > 10.0.0.2.5100: UDP, length 38
	0x0000:  00ad beef 1234 0011 da87 a6c0 0800 4500
	0x0010:  0042 0000 4000 4011 26a9 0a00 0001 0a00
	0x0020:  0002 d28c 13ec 002e 1442 4567 0001 0002
	0x0030:  0000 0000 0000 0000 2003 0000 0000 0000
	0x0040:  0000 0000 0000 0000 0000 0000 0000 0000
