:03000000020008F3
:03006100750C001B
:030069000200038F
:0500030012048880FEDC
:0E006C0075B28353D9BF75B90043B9807A6469
:02007A007B0009
:05007C001ABAFF011B90
:0D008100EA4B70F743B9C0E5B943A903226B
:04008E0043A41F2246
:0400920043A5FE2262
:0A00960075A6EFD2A5C2A6C2A722EC
:0400A00075A70F220F
:0700A4001205F81205FE121F
:0200AB00081C2F
:0400AD007A007B005A
:0E00B100C3EA940AEB648094805009C2810A6D
:0600BF00BA00EF0B80EC1B
:0800C500D280C2807A007B00AA
:0E00CD00C3EA940AEB6480948050167C087D90
:0100DB000024
:0500DC001CBCFF011D2A
:0D00E100EC4D70F7C2810ABA00E20B80DF1F
:0400EE00C28080BB91
:0A00F20053D9BF12006C7582002282
:0600FC00E582FA7001220A
:06010200C281D28180FAE7
:0A010800C01485811405810581A84B
:0C0112001408E4F608F67A007B00C00236
:0B011E00C0037401C0E074A3C0E074D3
:0C01290038C0E07480C0E090051C75F048
:0E01350000121F70AC82E58124FCF5818C82E3
:0B0143001200FCD003D0027D007E0003
:0E014E00C3ED940AEE648094805009C2A50DA2
:06015C00BD00EF0E80EC77
:02016200D2A524
:0C01640030A4FDAD140D7E007F40C002F1
:0E017000C003C005C006C007E4C0E07402C0B2
:0A017E00E07400C0E07401C0E0E48A
:0E018800C0E090051C75F0001221D5AD82E597
:0D0196008124F8F5818D048C821200FCA8F4
:0C01A3001408E624B8FD08E634FFFEC096
:0E01AF0005C00690014875F0001202BF1581D0
:0A01BD001581D003D0027D007E0002
:0C01C700A81408B6000608B60202800367
:0301D30002029B8A
:0C01D600C002C003AF140F7A007B40C0D1
:0E01E20003C005C006C007C002C003E4C0E0B1
:0A01F0007402C0E07400C0E0740166
:0E01FA00C0E0E4C0E090051C75F0001221D5B5
:0E020800AA82E58124F8F581D006D005D00346
:0D0216008A048C82C002C003C005C006121D
:0C02230000FCD006D005D003D002A814C7
:0E022F00088602088603C002C003C005C00690
:0E023D00C002C00390010075F0001202BF1550
:0E024B00811581D006D005D003D0020DBD0074
:02025900010E94
:0E025B00C005C0067464C0E0E4C0E08D828E71
:0E02690083123821AA82AB8315811581D0063D
:0E027700D005EA4BD003D002700CEA4BB40164
:010285000078
:07028600E433FC8C027B0055
:09028D00EA4B6005D2B00201C782
:05029600C2B00201C727
:06029B00D2B07A007B00E6
:0E02A100C3EA9464EB64809480500DC2A7D22F
:0A02AF00A7C2A70ABA00EB0B80E813
:0602B900851481D014221F
:0A02BF00C014858114AA82AB83AC41
:0602C900F0E4F508F50960
:0A02CF00E51424FCF8C3E50896E5E9
:0C02D9000964800886F063F08095F04016
:0402E500030203D934
:0A02E900E5082AFDE5093BFE8C073D
:0C02F3008D828E838FF0123795F50B740E
:0A02FF0080550BF50C6004D2A680B8
:0103090002F1
:02030A00C2A689
:0A030C00C2A7D2A7C2A7E50B250B7C
:07031600F50B7480550BF597
:07031D000C6004D2A680026F
:02032400C2A66F
:0A032600C2A7D2A7C2A7E50B250B62
:07033000F50B7480550BF57D
:070337000C6004D2A6800255
:02033E00C2A655
:0A034000C2A7D2A7C2A7E50B250B48
:07034A00F50B7480550BF563
:070351000C6004D2A680023B
:02035800C2A63B
:0A035A00C2A7D2A7C2A7E50B250B2E
:07036400F50B7480550BF549
:07036B000C6004D2A6800221
:02037200C2A621
:0A037400C2A7D2A7C2A7E50B250B14
:07037E00F50B7480550BF52F
:070385000C6004D2A6800207
:02038C00C2A607
:0A038E00C2A7D2A7C2A7E50B250BFA
:07039800F50B7480550BF515
:07039F000C6004D2A68002ED
:0203A600C2A6ED
:0A03A800C2A7D2A7C2A7E50B250BE0
:0703B200F50B7480550BF5FB
:0703B9000C6004D2A68002D3
:0203C000C2A6D3
:0A03C200C2A7D2A7C2A7E50B250BC6
:0603CC00F50B0508E4B585
:0403D200080205090F
:0303D6000202CF51
:0303D900D014221B
:0A03DC00C01485811405810581A875
:0B03E6001408E4F608F67401C0E0748F
:0A03F100ACC0E07438C0E07480C0B6
:0E03FB00E090053375F000121F70AA82E581B4
:0C04090024FCF5818A821200FCAB140B6D
:0E0415007C007D40C003C004C005E4C0E0745C
:0A04230002C0E07400C0E07401C0E4
:0E042D00E0E4C0E090053375F0001221D5AB7D
:0E043B0082E58124F8F5818B028A821200FC92
:040449007A007B00BA
:0C044D008A048B05A81408C3EC96ED0887
:0E04590096500DC280D280C2800ABA00E70B16
:0204670080E42F
:040469007A007B009A
:0E046D00C3EB6480948250D4C280C280C280EF
:0B047B000ABA00EE0B80EB851481D064
:0204860014223E
:0E04880043FF0243EF017A807B967C987D0053
:0D0496001ABAFF091BBBFF051CBCFF011DAE
:0D04A300EA4B4C4D70ED12008E12009212CB
:0904B00000961200A043E2407422
:0A04B90000C0E07403C0E0E4C0E0FE
:0E04C300758200121EF8AA821581158115811E
:0904D1008A821200FC12010802EB
:0204DA002F3EB3
:0938A300636F72652E6269740006
:0838AC006F75742E6461740055
:0B04DC00AA82AB83EA4B24FF92962219
:0604E700AA827B007C00EC
:0E04ED00C3EB9408EC64809480502A7407C31B
:0E04FB009BFDE49CFE8DF005F0EA3392D2EA00
:0205090080036D
:03050B00A2D21366
:0E050E00D5F0FAFD139295C292D292C2920BD2
:06051C00BB00CE0C80CBF9
:0105220022B6
:05052300C000E47808AF
:0E052800A290D29233C292D8F7F582D0002270
:0105360022A2
:0A053700C0148581140581E582756A
:0E054100F005A4FA9038B493FB53033F430334
:0C054F0040E51424FAF80808088604E5CA
:0A055B001424FAF808088605E514D8
:0C05650024FAF8088606E51424FAF8A928
:0A0571001409E6F7EA24B4FAE434B2
:0C057B0038FF8A828F83A3A3E493FA90D8
:0D0587000001C002C003C004C005C0061280
:0E05940004DC9000001204DCD006D005D00478
:0E05A200D0038B82C004C005C0061204E7D04F
:0E05B00006D005D0048C82C005C0061204E7F8
:0E05BE00D006D0058D82C0061204E7D0068E4E
:0A05CC00821204E7A81408868212C8
:0B05D60004E7D0028A821204E77A0AD0
:0E05E100C002120523AB82D002EB30E702DA33
:0105EF00F11A
:0805F0008B82851481D01422D6
:0605F8009000010204DC8A
:0E05FE007A00900001C0021204DCD0027B14CF
:02060C007C0070
:0E060E007582FFC002C003C0041204E7D004CE
:09061C00D003D0021BBBFF011C3E
:04062500EB4C70E545
:05062900BA0102801B74
:0D062E00E4C0E0C0E0C0E0C0E07582001252
:0E063B000537AB82E58124FCF5818B0280E05F
:020649007A0134
:04064B00BA000122CE
:0D064F00E4C0E0C0E0C0E0C0E07582011230
:0E065C000537AB82E58124FCF5818B0280E13D
:08066A00AA82AB83ACF07D0015
:05067200BDFE02801531
:0E067700C002C003C004120523AE82D004D01E
:0706850003D0028E0580E6A0
:08068C00C280D2807D007E02D5
:0E069400C002C003C004C005C006120523AF9B
:0E06A20082D006D005D004D003D0028A828B0D
:0E06B000838CF0EF123529A3AA82AB831DBD07
:0306BE00FF011E1B
:0D06C100ED4E70CFC280120523120523906C
:0506CE0000010204DC44
:0A06D300C014858114AA82AB83AC29
:0E06DD00F0FDC002C003C004C0057582061205
:0C06EB000537E58124FCF581E51424FBB3
:0D06F700F886820886830886F012066AD015
:020704001422BD
:0A070600C0148581140581058105EA
:0C07100081AA82AB83ACF07D00A8140825
:0E071C00A60208A60308A604C005E4C0E0C0BB
:0E072A00E0C0E0C0E0758202120537E58124D0
:05073800FCF581D00575
:05073D00BDFE02800971
:09074200120523AE828E0580F23F
:0C074B00A8140886060886070886027CB1
:03075700107D0012
:0E075A00C002C004C005C006C007120523ABD4
:0E07680082D007D006D005D004D0028E828F3A
:0D077600838AF0EB123529A3AE82AF83A871
:0C0783001408A60608A60708A6021CBC65
:03078F00FF011D4A
:0C079200EC4D70C4A81408A60608A607C9
:0E079E0008A6021205231205237D00C005E403
:0E07AC00C0E0C0E0C0E0C0E075820312053777
:0807BA00E58124FCF581D00566
:0507C200BDFE028009EC
:0907C700120523AA828A0580F2C2
:0C07D000A8140886020886030886047D31
:0307DC00107E008C
:0E07DF00C002C003C004C005C006120523AF4F
:0E07ED0082D006D005D004D003D0028A828BC1
:0E07FB00838CF0EF123529A3AA82AB831DBDBB
:03080900FF011ECE
:0B080C00ED4E70CF120523120523856E
:050817001481D0142241
:0E081C00E4C0E07402C0E0E4C0E0C0E0758219
:0B082A0005120537E58124FCF5812252
:0E38B40000009500000100FF00000900FF0069
:0E38C200010A00FF00010C00FF01001001FFD1
:0E38D00000001101FF00011201FF00011701AD
:0E38DE00FF00001801FF00011901FF00013A70
:0438EC0000FF0300D6
:05006400E4F50DF50EAE
:070835001205F81205FE1286
:07083C00081C750D01E4F535
:050843000E90000122EF
:07084800850D82850E83225D
:0A084F00C014E581F5142407F581BB
:0C085900AA82AB83ACF0E51424FAF8A9E5
:0C0865001409E625E009F708E63309F75E
:0C08710008E63309F71919197700E5149F
:0C087D002405F8A60208A60308A604A89B
:0C08890014088605088606088607088605
:03089500027B00E3
:0C089800E51424F9F8C3EB96504BC002A5
:0C08A400C003C005C006C007E514240511
:0E08B000F8E6C0E008E6C0E008E6C0E08D8291
:0E08BE008E838FF0EA1206D315811581158105
:0C08CC00D007D006D005D003D002E51400
:0E08D8002405F874020826F674022EFEE43F92
:0708E600FFE43AFA0B80ABBE
:0908ED00900000851481D0142252
:0908F600C014858114900000D0AB
:0208FF001422C1
:09090100C014858114900000D09F
:02090A001422B5
:07090C00120835758200227C
:0E091300120848AA82AB83BA0107BB00047A1F
:0309210000800251
:020924007A0156
:030926008A8222A0
:06092900C014858114E5F5
:0A092F001424F6F8E6C0E0E51424F5
:0E093900F7F8E6C0E008E6C0E008E6C0E00817
:0C094700E6C0E0E51424FBF88682088678
:0E095300830886F012084FE58124FBF58175BC
:050961008200D0142209
:06096600C014858114E5B8
:0A096C001424F6F8E6C0E0E51424B8
:0E097600F7F8E6C0E008E6C0E008E6C0E008DA
:0C098400E6C0E0E51424FBF8868208863B
:0E099000830886F01208F6E58124FBF58175D8
:05099E008200D01422CC
:0609A300C014858114E57B
:0C09A9001424FAF8E6C0E008E6C0E008FC
:0B09B500E6C0E0A81418181886821293
:0C09C0000901158115811581758200D098
:0209CC001422F3
:0A09CE00C014858114C082C083C0EC
:0C09D800F0C0E0058105810581E51424D4
:0909E40005F8A60F08A61008A6EC
:0A09ED0011E5142405F8740426FE39
:0E09F700E40836FF0886028E828F838AF01293
:0A0A05003795FEA3123795FFA312E8
:090A0F003795FAA3123795FBA8F4
:0C0A18001408E6B5061208E6B5070D0844
:0C0A2400E6B5020808E6B50303020AAFBD
:0C0A3000A81408E6084608460846607353
:0C0A3C00E5142405F8741C26FAE40836C2
:0C0A4800FB0886047401C0E0A81408E656
:0E0A5400C0E008E6C0E008E6C0E008E6C0E04A
:0E0A6200C002C003C004758200120929AA82D6
:0B0A7000E58124F8F581BA0002800542
:050A7B007582008032CD
:0C0A8000E5142405F8740426FAE4083696
:0C0A8C00FB0886048A828B838CF0A8147F
:0E0A980008E6123529A308E6123529A308E660
:090AA600123529A308E6123529D6
:030AAF007582014C
:060AB200851481D014221E
:0A0AB800C014858114C082C083E5DC
:0A0AC20081240DF581AC0FAD10AEDC
:0A0ACC0011A81408C3E6940208E61E
:070AD60094005003020D3FE4
:0E0ADD0074162CFFE43DFA8E038F828A838B01
:0B0AEB00F0123795FFA3123795FAA810
:0B0AF6001408C3E69F08E69A400302C4
:020B01000D3FA6
:0E0B030074082CFAE43DFB8E078A828B838FE8
:0C0B1100F0E5142407F8123795F6A31243
:0C0B1D00379508F6A312379508F6A312CE
:0C0B2900379508F6E5142407F874182C22
:0D0B3500FAE43DFB8E078A828B838FF0125D
:080B42003795FABA010280099F
:060B4A00BA0203020CCA0E
:030B5000020D3F54
:0D0B5300C004C005C006C004C005C006A84F
:0C0B60001408E6C0E008E6C0E0900003C6
:0E0B6C00123542AA82AB8315811581D006D0C6
:0C0B7A0005D004E5142405F8A602EBC326
:0C0B860013C613C608F6E5142405F80891
:0C0B9200E6C313FFE4FCFDFEE51424079D
:0E0B9E00F8EF26FFEC0836FCED0836FDEE08F9
:0E0BAC0036FE8F828C838DF0C004C005C0061B
:0E0BBA001209CEE582D006D005D004D006D0B8
:080BC80005D0047003020D3F8B
:0E0BD000741C2CFFE43DFA8E03C004C005C067
:0C0BDE0006E5142405F88604740108568E
:0E0BEA00FDEC2FFFED3AFA8F828A838BF0121A
:0C0BF8003795FFA814080808A607087627
:0C0C040000E5142405F806B600020806FE
:0C0C1000E5142405F808E6C313FAE4FB21
:0C0C1C00FCFDE5142407F8EA26FAEB08BA
:0E0C280036FBEC0836FCED0836FD8A828B8325
:0E0C36008CF0C004C005C0061209CEE582D0C5
:0E0C440006D005D004D006D005D004700302FF
:020C52000D3F54
:0C0C5400E514240BF8741C2CF6E43D0899
:0C0C6000F608A606E5142405F8860274C8
:0C0C6C00010856FBE514240BF8EA26FAF8
:0E0C7800EB0836FB0886078A828B838FF0120A
:0C0C86003795FA8A037A00A814080808C1
:0C0C9200EA46F6EB0846F6A81408E63027
:0C0C9E00E018A814080808860208E6C444
:0E0CAA00CAC4540F6ACA540FCA6ACAFB800C2F
:0C0CB800A8140808088602740F0856FBF8
:060CC4008A828B83807818
:0C0CCA00C004C005C006A814080886027B
:0C0CD600E4FBFFFCE5142407F8EA26FA12
:0E0CE200EB0836FBEF0836FFEC0836FC8A8282
:0E0CF0008B838FF0C004C005C0061209CEE54C
:0E0CFE0082D006D005D004D006D005D0046008
:0C0D0C0032741C2CFCE43DFDA814088689
:0E0D18000208E6CA25E0CA33FB530301EA2CA9
:0E0D2600FCEB3DFD8C828D838EF0123795FC28
:0B0D3400A3123795FD8C828D83800395
:030D3F0090000120
:060D4200851481D014228B
:0A0D4800C014E581F5142407F581BD
:0A0D5200AC82AD83A81408A60F08B8
:0A0D5C00A61008A611EC24FEFCED21
:0C0D660034FFFDA81408741626FFE408F2
:0E0D720036FA0886038F828A838BF01237953B
:0E0D8000FFA3123795FAEF24FEFFEA34FFFAC4
:0E0D8E00C3EC9FED9A4009900000E4F5F002DE
:020D9C000E3D0A
:0C0D9E00E5142404F8A60408A605087655
:0C0DAA0000087600A81408741926FDE467
:0D0DB6000836FE0886028D828E838AF012B8
:0E0DC3003795FD7A007B007C00C005C002C0A1
:0C0DD10003C004E5142404F886820886A0
:0C0DDD00830886F008E61237B1A814085D
:0E0DE900080808A68208A68308A6F008F6E50A
:0C0DF7008124FCF581A81408741026FE6D
:0E0E0300E40836FF0886028E828F838AF01282
:0A0E11003795FEA3123795FFA312D8
:090E1B003795FAA3123795FBE5A7
:0C0E2400142404F8EE26FEEF0836FFEA66
:0D0E30000836FAEB0836FB8E828F838AF0BD
:060E3D00851481D014228F
:0A0E4300C014858114C082C083C072
:0C0E4D00F0E5812413F581E5142406F87B
:070E5900A60F08A61008A671
:050E600011A81408E5D3
:0C0E6500142411F9740226F7E408360981
:0C0E7100F70809E6F7E5142411F8868262
:0E0E7D000886830886F0123795FAA31237957F
:0C0E8B00FBE5142404F874012AF6E43B93
:0C0E970008F6E5142404F8E6540F60038C
:030EA300021045F5
:0A0EA600A81408E5142409F9740BE0
:0C0EB00026F7E4083609F70809E6F7E524
:0C0EBC00142409F886820886830886F05A
:0B0EC800123795FCA3123795FDA31212
:0E0ED3003795FEA3123795FF0CBC00090DBD2C
:070EE10000050EBE00010F29
:0C0EE800E5142409F88682088683088639
:0D0EF400F0EC123529A3ED123529A3EE1202
:080F01003529A3EF123529A8E0
:0A0F09001408E514240CF9740926FD
:0C0F1300F7E4083609F70809E6F7E514D2
:0C0F1F00240CF886820886830886F0E522
:0A0F2B0014240FF9123795F7A312F2
:0C0F3500379509F7E514240FF8E608468C
:0C0F41007035E5142406F8740226FCE468
:0D0F4D000836FD0886068C828D838EF0121A
:090F5A003795FCA3123795FDE563
:0C0F6300142404F8C3E69C08E69D50032B
:030F6F0002104528
:060F72007582000210640C
:0C0F7800E5142404F8860408E6C4CCC488
:0C0F8400540F6CCC540FCC6CCCFDE51469
:0E0F90002406F8741926FEE40836FF088602CF
:0E0F9E008E828F838AF0123795FE7A001EBE77
:030FAC00FF011A28
:0D0FAF00EE5204EA5205EC4D6003021045BD
:0B0FBC00E514240FF8868208868312DB
:0E0FC7000AB8AA82AB83C3EA9402EB940040FE
:0C0FD50026E5142406F8741626FCE40837
:0E0FE10036FD0886068C828D838EF0123795C1
:0D0FEF00FCA3123795FDC3EA9CEB9D400565
:050FFC00758200806316
:0C100100E514240CF8868208868308861B
:0E100D00F0EA123529A3EB1235298A828B8373
:0C101B00120D48AA82AB83ACF0FDE51476
:0D1027002409F886820886830886F0EA1204
:0A1034003529A3EB123529A3EC12B5
:07103E003529A3ED1235294D
:0C104500E5142411F886820886830886D2
:0C105100F0E5142404F9E7123529A30986
:07105D00E71235297582013D
:06106400851481D0142266
:0A106A00C014858114C082C083C049
:0C107400F0058105810581E51424FBF8DE
:0E1080008605088606088607740BC0E0E4C0EB
:0E108E00E07420C0E08D828E838FF012368CCD
:0C109C00158115811581E5142405F876F6
:0A10A80000E5142406F87618E5149C
:0710B2002404F876007E081B
:0C10B900C006A8140886820886830886FA
:0C10C500F0123795FEA3123795FFA3121E
:0D10D1003795FD74012EFAE43FFB8D04A855
:0C10DE00140886820886830886F0EA1257
:0A10EA003529A3EB123529A3EC12FF
:0E10F40035298E828F838DF0123795FE8E0780
:08110200D006EF6003BF2F3699
:0B110A00E5142404F8E67003021274E0
:0C111500E51424FBF8740B26FAE40836FD
:0A112100FB088604E5142405F8E538
:0C112B00142406F9E756FD8A828B838CA1
:09113700F01235298F82021277B3
:08114000EF24DF4003021274EA
:06114800BF7F03021274D8
:0C114E00BF2E32E5142405F8E630E00363
:03115A000212740A
:08115D00E5142404F8B60100BA
:051165005003021274AA
:0B116A00E5142404F8E624F75003020B
:021175001274F2
:0C117700E5142404F876087E0B0210B981
:03118300BF810029
:071186004005EF2460500A50
:03118D00BFE000C0
:07119000401EEF240340198B
:0C119700E5142404F8E67005BFE5027FB3
:0111A3000546
:0C11A400E5142405F8E66401F60212418F
:0611B000BF2203021274CD
:0811B600EF24D64003021238B9
:0811BE00EF24D3400302127478
:0811C600EF24C64003021238B9
:0811CE00EF24C040030212747B
:0C11D600E5142405F8E620E059BF7C0376
:0311E20002127482
:0311E500BF5B00ED
:0A11E8004008EF24A2400302127435
:0311F200BF4100FA
:0C11F500401CEF24A54017BE080BE514B9
:091201002406F8E654F7F6800912
:09120A00E5142406F8E654EFF6A1
:03121300BF6100B8
:0E1216004020EF2485401BEF24E0FFBE080BB4
:0B122400E5142405F8E64408F68009F4
:09122F00E5142405F8E64410F66C
:09123800E5142405F8E654FEF665
:0B124100E5142404F8C3E69E5029E5E4
:0A124C00142404F88602E5142404BB
:0C125600F806E51424FBF8EA26FAE40888
:0D12620036FB0886048A828B838CF0EF1225
:05126F0035290210B951
:031274007582017F
:06127700851481D0142251
:0A127D00C014858114C082C083C034
:0C128700F0E5812411F581E5142409F83C
:07129300A60F08A61008A633
:0A129A0011E5142409F8740C26FD78
:0E12A400E40836FE0886078D828E838FF012D6
:0A12B2003795FDA3123795FEA31235
:0712BC003795A3123795E5F9
:0A12C300142404F8A60508A606A8E6
:0C12CD001408740926FAE40836FB0886B1
:0C12D90004A81408740726FFE40836FD82
:0E12E5000886068F828D838EF0E4123529A3D1
:0E12F300E41235298A828B838CF0E4123529AF
:09130100A3E4123529A81408E543
:0C130A0014240CF9740B26F7E4083609D3
:0C131600F70809E6F7E5142404F8860542
:0C132200088606E4FFFAE514240CF886A7
:0E132E00820886830886F0ED123529A3EE12A0
:0A133C003529A3EF123529A3EA12A8
:0C1346003529A81408740226FAE40836C1
:0E135200FB0886048A828B838CF0E412352916
:0C136000A3E4123529A81408740426FA2E
:0E136C00E40836FB0886048A828B838CF0E549
:0C137A00142409F8E6123529A308E61235
:091386003529A308E6123529E51A
:0C138F001424F8F886020886030886047F
:0C139B008A828B838CF01237957027E556
:0C13A7001424F5F886020886030886046A
:0D13B3008A828B838CF0E4123529A3E412AA
:0B13C0003529A3E412352975820002D4
:0213CB0016BF4B
:0A13CD00E51424F8FA7B007C40E5EB
:0C13D7001424FBF8E6C0E008E6C0E008C3
:0E13E300E6C0E08A828B838CF012106AAA8228
:0D13F100158115811581BA0106758204026F
:0213FE0016BF18
:0C140000E5142409F8741C26FBE40836EF
:0A140C00FC088605A81408E5142466
:0E1416000CF9740B26F7E4083609F70809E60E
:01142400F7D0
:0C142500C003C004C005E514240CF886C8
:0D143100820886830886F0123795FEA3120C
:0A143E003795FFA3123795FBA312A8
:0E1448003795FC8E828F838BF0C002C003C0EC
:0E14560004C0051209CEE582D005D004D003F3
:0E146400D002D005D004D003700675820802B5
:0214720016BFA3
:0A147400C002A81408E514240FF9C3
:0E147E00740226F7E4083609F70809E6F7E5D8
:0C148C0014240FF886820886830886F07E
:0E149800123795FEA312379553060FE4C423B6
:0E14A60054E0CEC423CE6ECE54E0CE6EFFEEE8
:0C14B4002BFEEF3CFF8D02E5142406F82F
:0C14C000A60608A60708A602E5142406EC
:0E14CC00F886820886830886F0123795D002D3
:0614DA007014EAB40100E9
:0914E000E433FE60047E02800288
:0214E9007E0380
:0514EB008E820216BF15
:0C14F000E5142406F8868208868308862E
:0A14FC00F0123795FEBEE502806F86
:0C150600C003C004C005E5142406F874FE
:0E1512000B26FEE40836FF0886038E828F83C8
:0E1520008BF0123795FE5408D005D004D0038E
:0E152E007045C002C003C004C005740BC0E0CD
:0C153C00E4C0E0E51424FBF8E6C0E00881
:0C154800E6C0E008E6C0E0E5142406F868
:0E15540086820886830886F0123564AE82AF68
:0E15620083E58124FBF581D005D004D003D0B1
:0515700002EE4F60399E
:0C157500A8140886820886830886F0C04F
:0E15810002C003C004C005120E43E582D0056F
:0B158F00D004D003D00260030214253A
:04159A00EAB40100AE
:09159E00E433FB60047B028002CF
:0215A7007B03C4
:0515A9008B820216BF59
:0C15AE00EA702EE51424F5F88602088689
:0C15BA00030886048A828B838CF0E51401
:0E15C6002406F8E6123529A308E6123529A3FB
:0B15D40008E61235297582000216BFE0
:0C15DF00E5142406F8740B26FAE4083624
:0E15EB00FB0886048A828B838CF0123795FAF7
:0915F90020E4067582030216BF0E
:0C160200E5142406F8741A26FAE40836F1
:0E160E00FB0886048A828B838CF0123795FAD3
:0C161C00A3123795FBE5142404F8A60285
:0C16280008A603A81408740926FAE408B8
:0C16340036FB088604A81408740726FD85
:0E164000E40836FE0886078D828E838FF0E563
:0C164E00142404F8E6123529A308E61263
:0C165A0035298A828B838CF0E51424046F
:0C166600F8E6123529A308E6123529E544
:0C167200142404F88682088683120D48B8
:0C167E00AA82AB83ACF0FDE514240CF84C
:0E168A0086820886830886F0EA123529A3EBD3
:0B169800123529A3EC123529A3ED1236
:0C16A3003529E514240FF88682088683A0
:0E16AF000886F07402123529A3E412352902D0
:0216BD0013CD4B
:0616BF00851481D0142205
:0A16C500C014858114C082C083C0E8
:0816CF00F0C0E0AE0FAF10AA5D
:0C16D70011741C2EFBE43FFC8A05C002CD
:0C16E300C006C0077401C0E0A81408E6AF
:0E16EF00C0E008E6C0E008E6C0E008E6C0E0A3
:0E16FD00C003C004C005758200120929AB822B
:0E170B00E58124F8F581D007D006D002BB009E
:0317190002800546
:05171C00758202806CE3
:0E172100741C2EFBE43FFC8A0574FE2BFB7447
:0E172F00013CFC8B828C838DF0123795FBA35E
:0C173D00123795FCBB5505BCAA028005C4
:05174900758202803FE3
:0E174E00741C2EFEE43FFF74362EFEE43FFFB7
:0C175C007403C0E0E4C0E074F0C0E0746E
:0C17680038C0E07480C0E08E828F838A5D
:0E177400F0123564AA82AB83E58124FBF58177
:08178200EA4B7004F5828003BC
:03178A0075820164
:06178D00851481D0142236
:0A179300C014858114C082C083C019
:0C179D00F0E581242CF581A81408868258
:0E17A9000886830886F0123795FDA312379547
:0C17B700FEA3123795FFE5142414F8A6D9
:0617C3000F08A61008A6A5
:0717C900118D028E038F0455
:0C17D0008A828B838CF0E5142417F81239
:0C17DC003795F6E5142417F8B620070A2C
:0617E800BA00E50B80E2EF
:0C17EE008A058B068C07E5142417F8B65A
:0B17FA002F0974012AFDE43BFE8C0760
:0C180500A8140886820886830886F0ED8F
:0B181100123529A3EE123529A3EF12B7
:0C181C003529E5142414F8E608460846B7
:08182800700675820A021EA879
:0C183000E5142414F8741826FAE40836B5
:0E183C00FB0886048A828B838CF0123795603D
:0E184A0012758200120913E582FA20E006757D
:051858008200021EA841
:0C185D00741CC0E07402C0E0E4C0E0E5D0
:0C186900142414F886820886830886F098
:0D18750012368C15811581158175820012C7
:0E188200090CAB828B02EA30E006758201028F
:021890001EA890
:0C189200E5142404F8E4F608F608F60853
:0E189E00F6900000E4F5F01216C5AA828A0545
:0518AC00BD01028003F4
:0318B100021932E7
:0C18B400C005E5142414F8741C26FBE4A5
:0E18C0000836FC08860274C22BFB74013CFC47
:0E18CE008B828C838AF0123795D0056057E527
:0C18DC00142414F8741C26FBE40836FCED
:0E18E80008860574C62BFB74013CFC8B828CB9
:0E18F600838DF0123795FBA3123795FCA312D9
:091904003795FDA3123795FEE5AD
:0C190D00142404F8A60308A60408A6058C
:0C19190008A606E5142404F8868208865F
:0D192500830886F008E61216C5AB828B051C
:0C193200ED702EE5142414F8741C26FB44
:0E193E00E40836FC088605740B2BFBE43CFC29
:0E194C008B828C838DF0123795FBA31237959A
:09195A00FCBB0005BC0202800682
:0619630075820B021EA8B4
:0C196900E5142414F8741C26FBE4083676
:0E197500FC08860574162BFBE43CFC8B828C70
:0D198300838DF0123795FBA3123795FCE51C
:0C199000142408F8A60308A6040876003A
:0C199C00087600E5142408F8E608460868
:0C19A8004608467040E5142414F8741C36
:0E19B40026FAE40836FB08860474242AFAE4B6
:0E19C2003BFB8A828B838CF0123795FAA312BE
:0A19D0003795FBA3123795FCA31214
:0C19DA003795FDE5142408F8A60208A6C5
:0719E6000308A60408A60592
:0C19ED00E5142414F8741426FFE40836F6
:0C19F900FB088604E5142408F8860508A5
:0E1A050086068F828B838CF0ED123529A3EEBE
:0C1A1300123529E5142414F8741A26FA80
:0C1A1F00E40836FE088607E5142414F8DD
:0C1A2B00E5142418F9741C26F7E40836B2
:0C1A370009F70809E6F7E5142418F87414
:0E1A43001026FCE40836FD0886038C828D8395
:0D1A51008BF0123795FC8A828E838FF01285
:0E1A5E0035297B007D007E00C004C003C0055A
:0C1A6C00C006E5142408F8868208868372
:0E1A78000886F008E61237B1AB82AC83ADF001
:0C1A8600FEE58124FCF581E5142408F83D
:0C1A9200A60308A60408A60508A606E5A1
:0A1A9E00142414F8E514241BF97455
:0D1AA8000826F7E4083609F70809E6F7E517
:0C1AB500142418F8740E26FEE40836FF16
:0E1AC1000886038E828F838BF0123795FEA36A
:0C1ACF00123795FFE4FBFCE5142404F83A
:0E1ADB00EE26FEEF0836FFEB0836FBEC083671
:0C1AE900FCE514241BF8868208868308A4
:0E1AF50086F0EE123529A3EF123529A3EB126D
:081B03003529A3EC123529E598
:0A1B0B00142414F8E514241FF974E3
:0D1B15001926F7E4083609F70809E6F7E598
:0C1B2200142418F8740D26FEE40836FFA9
:0E1B2E000886038E828F838BF0123795FEE5BA
:0C1B3C0014241FF886820886830886F0B7
:0A1B4800EE123529E5142414F8E527
:0C1B5200142422F9740226F7E408360976
:0C1B5E00F70809E6F7E5142418F87411E4
:0E1B6A0026FEE40836FF0886038E828F838BEA
:0B1B7800F0123795FEA3123795FFE531
:0C1B8300142422F886820886830886F06D
:0A1B8F00EE123529A3EF123529E507
:0C1B9900142418F8741326FBE40836FC32
:0E1BA5000886058B828C838DF0123795FBA38A
:0C1BB300123795FCE514240CF8A603087A
:0C1BBF00A604087600087600E514240C4B
:0C1BCB00F8E60846084608467040E5149D
:0E1BD7002414F8741C26FAE40836FB08860471
:0E1BE50074202AFAE43BFB8A828B838CF01278
:0A1BF3003795FAA3123795FBA312F1
:091BFD003795FCA3123795FDE5B4
:0C1C060014240CF8A60208A60308A6048B
:031C120008A6051C
:0A1C1500E5142414F8E5142425F961
:0E1C1F00741626F7E4083609F70809E6F7E51B
:0C1C2D00142414F8741C26FDE40836FE94
:0E1C3900088603740E2DFDE43EFE8D828E8320
:0E1C47008BF0123795FDA3123795FEE4FBFCDF
:0C1C5500E514240CF8E6C39DFD08E69E93
:0C1C6100FE08E69BFB08E69CFCE5142452
:0C1C6D0008F8E5142429F9EDC396F7EE01
:0E1C7900089609F7EB089609F7EC089609F7AC
:0C1C8700E5142422F88682088683088673
:0E1C9300F0123795FFA3123795C4CFC4540F3B
:0C1CA1006FCF540FCF6FCFFBE4FCFDE5CC
:0C1CAD00142429F8E6C39FF608E69BF615
:0C1CB90008E69CF608E69DF6E514241FE2
:0E1CC500F886820886830886F0123795FE7B2B
:0E1CD300007C007D00C006C003C004C005E513
:0C1CE100142429F886820886830886F007
:0E1CED0008E612361FAB82AC83ADF0FEE58137
:0C1CFB0024FCF581E5142410F874022B81
:0E1D0700F6E43C08F6E43D08F6E43E08F6E596
:0A1D1500142410F8E5142429F9E65F
:0E1D1F00F70809E6F70809E6F70809E6F7E510
:0A1D2D00142410F88606088603E56A
:0C1D3700142425F886820886830886F0B4
:0C1D4300EE123529A3EB1235297D01E5D5
:0C1D4F00142429F8C374F796740F08964A
:0A1D5B00E40896E4089650027D02A9
:0C1D6500E5142429F8C374F79674FF08F5
:0D1D710096E40896E40896500675820B0271
:021D7E001EA89D
:0A1D8000E5142414F8E5142429F9F1
:0E1D8A00740C26F7E4083609F70809E6F7E5B9
:0C1D980014241BF886820886830886F05D
:0B1DA400123795FEA3123795FFA31223
:091DAF003795FAA3123795FBE504
:0A1DB800142408F8E5142425F9E6C8
:0E1DC2002EF708E63F09F708E63A09F708E6AB
:0C1DD0003B09F7E5142429F886820886F8
:0B1DDC00830886F0E5142425F9E712C7
:0C1DE7003529A309E7123529A309E712EA
:091DF3003529A309E7123529E5A1
:0A1DFC00142414F8E5142429F974E6
:0D1E06001026F7E4083609F70809E6F7E5AD
:0C1E1300142422F886820886830886F0DA
:0E1E1F00123795FBA3123795C4CBC4540F6B3A
:0C1E2D00CB540FCB6BCBFEE4FFFAE514A6
:0E1E39002425F8EB26FBEE0836FEEF0836FFF8
:0C1E4700EA0836FAE5142429F88682081F
:0E1E530086830886F0EB123529A3EE1235299E
:0B1E6100A3EF123529A3EA123529E592
:0C1E6C00142414F8741826FAE40836FB5D
:0E1E78000886048A828B838CF0ED12352905D2
:061E860012E4B512020592
:011E8C001342
:0C1E8D00E5142414F88682088683088679
:081E9900F0E512123529A3E562
:071EA10013123529758200C0
:061EA800851481D0142214
:0A1EAE00C014858114AA82AB83AC36
:0D1EB800F0EA4B4C601F8A828B838CF01285
:091EC5003795FAA3123795FBE5ED
:0C1ECE001424FCF8E6B5020708E6B50392
:031EDA000280057E
:051EDD0075820C80136A
:0E1EE200758200120913E58230E00575820159
:021EF00080036D
:031EF200758200F6
:031EF500D01422E4
:0A1EF800C014858114E582FA60052C
:051F02007582058066F8
:051F0700AA0FAB10ACB5
:0A1F0C0011E51424FBF88605088691
:091F1600060886078D0F8E108F5E
:0C1F1F0011EA4B4C6026C005C006C0074C
:0E1F2B00741CC0E07402C0E0E4C0E08A828B47
:0E1F3900838CF012368C158115811581D0072E
:041F4700D006D005EB
:0E1F4B00ED4E4F601A741CC0E07402C0E0E45A
:0E1F5900C0E08D828E838FF012368C158115BC
:031F670081158160
:031F6A007582007D
:031F6D00D014226B
:0A1F7000C014858114C082C083C034
:0C1F7A00F0E581242DF581E5142422F807
:071F8600A60F08A61008A633
:051F8D0011A81408E595
:0C1F920014242BF9740426F7E408360927
:0C1F9E00F70809E6F7E514242BF886820A
:0D1FAA000886830886F0E4123529A3E412AE
:081FB7003529A3E4123529E5E8
:0A1FBF001424FAF8E65401F6E514C4
:0E1FC90024FBFA7B007C40E4C0E08A828B831C
:0E1FD7008CF0121793AA821581BA00028005C1
:051FE5008A820221CFF9
:0A1FEA00E5142404FBE5142425F897
:0C1FF400A603087600087640E5142416C9
:0C200000FE7A007F40E5142407FC7D0000
:0C200C007B40E5142425F8E6C0E008E65F
:0C201800C0E008E6C0E0E51424FBF8E698
:0E202400C0E008E6C0E008E6C0E0C006C0026A
:0E203200C0078C828D838BF012127DAB82E58D
:0C2040008124F7F5818B02E4BA00010452
:07204C0070058A820221CF1A
:0C205300E5142404F8B6000A08B60006E4
:06205F0008B60002801E1D
:0C206500E5142404F8740B26FDE4083692
:0E207100FE0886078D828E838FF0123795FD54
:04207F005410600693
:062083007582020221CF6C
:0C208900A81408740226FAE40836FB08CC
:0C20950086048A828B838CF0E51424FA08
:0C20A100F8E6123529A81408740F26FD7B
:0C20AD00E40836FE088607E5142404F859
:0E20B900741A26FAE40836FB0886048A828B25
:0E20C700838CF0123795FAA3123795FB8D82A9
:0E20D5008E838FF0EA123529A3EB123529A86D
:0A20E3001408E5142428F9740B26F4
:0C20ED00F7E4083609F70809E6F7E514E7
:0E20F9002404F8741C26FAE40836FB0886045A
:0E2107008A828B838CF0123795FAA3123795DB
:0C211500FBA3123795FCA3123795FDE5E3
:0C212100142428F886820886830886F0C3
:0C212D00EA123529A3EB123529A3EC12AD
:082139003529A3ED123529A898
:0C2141001408740726FAE40836FB088630
:0E214D00048A828B838CF0E4123529A3E412FD
:0A215B003529A3E4123529A3E4128C
:0C2165003529A81408740326FAE4083693
:0D217100FB0886048A828B838CF0740112B7
:0C217E003529E514242BF886820886839E
:0C218A000886F0E5142422F9E71235293C
:0D219600A309E7123529A309E7123529E551
:0C21A300142422F886820886830886F047
:0A21AF00123795FAA3123795FBA82A
:0C21B900140886820886830886F0EA126B
:0A21C5003529A3EB123529758200BD
:0621CF00851481D01422EA
:0A21D500C014858114C082C083C0CD
:0C21DF00F0E5812435F581E51424FBF8BF
:0C21EB008605088606088607E514241007
:0C21F700F8A60508A60608A607A814080C
:0E220300740426FDE40836FE0886078D828EE0
:0E221100838FF0123795FDA3123795FEA312AE
:0C221F003795FFE5142413F8A60508A667
:0A222B000608A607E51424F6F8E5FE
:0C223500142416F9E6F70809E6F708097A
:0C224100E6F7E5142416F8868208868370
:0D224D000886F0E4123529A3E4123529A813
:0B225A00140886820886830886F012B4
:0D2265003795FAA3123795FBC002C003E5C0
:0C227200142413F886820886830886F086
:0E227E00121EAEAA8215811581BA00028005DB
:05228C008A8202298E88
:0C229100A81408740226FAE40836FB08C2
:0E229D0086048A828B838CF0123795FD30E721
:0722AB000675820802298E6E
:0A22B200ED20E00675820602298E79
:0C22BC00C002C003C004A81408740B2664
:0E22C800FAE40836FB0886048A828B838CF0C9
:0B22D600E514241CF8123795F6A31243
:0C22E100379508F6A312379508F6A312F3
:0822ED00379508F6A81408E576
:0C22F500142419F9740726F7E4083609D0
:0C230100F70809E6F7E5142419F88682B5
:0E230D000886830886F0123795FEA3123795D6
:0C231B00FFA3123795FAA3123795FBE5DB
:0C23270014241CF8E6C39EFE08E69FFF8D
:0C23330008E69AFA08E69BFBE514240873
:0D233F00F8A60608A60708A60208A603E5F2
:0C234C001424F9F88602088603E4FCFD66
:0C235800E5142408F8C3E69A08E69B0888
:0E236400E69C08E69DE433D004D003D002606E
:0A23720010E5142408F8E51424F91E
:07237C00F9E6F70809E6F796
:0A238300A81408E5142433F97411BE
:0C238D0026F7E4083609F70809E6F7A86F
:0A2399001408E514241CF9740F2643
:0C23A300F7E4083609F70809E6F7E5142E
:0C23AF002413F8E5142420F9741626F716
:0C23BB00E4083609F70809E6F7E51424E9
:0C23C70013F8E5142423F9741926F7E438
:0C23D300083609F70809E6F7A81408E529
:0C23DF00142426F9741326F7E4083609CC
:0B23EB00F70809E6F7E5142413F8E5F5
:0C23F600142429F9741C26F7E4083609A9
:05240200F70809E6F7F0
:0B240700E51424F9F8E6084670030213
:02241200296F30
:0C241400E5142419F886820886830886E7
:0C242000F0E514242CF9123795F7A312F4
:0C242C00379509F7A312379509F7A312A2
:0C243800379509F7E514242CF8E6700530
:0524440008E630E00392
:03244900022780E7
:0A244C00C002C003C004A81408E594
:0C245600142430F9740326F7E40836095A
:0C246200F70809E6F7E5142430F886823C
:0C246E000886830886F0123795FA1AE5FC
:0C247A00142430F886820886830886F05F
:0E248600EA123529D004D003D0026044C0020F
:0C249400C003C004E5142426F88682086A
:0E24A00086830886F0123795FAA3123795FB53
:0B24AE00A3123795FCA3123795FDE543
:0C24B900142404F874012AF6E43B08F631
:0E24C500E43C08F6E43D08F6D004D003D00253
:0324D3000225DD02
:0C24D600E514242CF8E6084608460846E9
:0324E200B4010042
:0C24E500E433FD6018E514241CF8868226
:0E24F1000886830886F0123795FDA3123795F2
:0324FF00FE803923
:0C250200C002C003C004E5142433F886B6
:0D250E00820886830886F0123795FFA3121D
:0E251B003795FA8F828A83C002C003C0041273
:0E2529000AB8AD82AE83D004D003D002D00435
:04253700D003D002FB
:0C253B00C3ED9402EE94005003022974DA
:0C254700C002C003C004E5142420F88684
:0D255300820886830886F0123795FFA312D8
:0E2560003795FAC3ED9FEE9AD004D003D00257
:05256E00400302297486
:0C257300C002C003C004E5142433F88645
:0E257F00820886830886F0ED123529A3EE123D
:0E258D0035298D828E83C003C004120D48AD27
:0C259B0082AE83AFF0FAD004D003E51448
:0E25A7002404F8A60508A60608A60708A60242
:0C25B500E5142423F8868208868308863B
:0C25C100F0123795FAE5142430F88682F9
:0E25CD000886830886F0EA123529D004D00370
:0225DB00D0022C
:0C25DD00E5142426F88682088683088610
:0C25E900F0E5142404F9E7123529A309D9
:0E25F500E7123529A309E7123529A309E712D9
:082603003529E51424F9F8E57E
:0C260B0014240EF908E6C313F709770049
:0B261700E514240EF8E60846700302EC
:0226220027800F
:0C262400C002C003C004E5142430F88696
:0E263000820886830886F0123795FF7A00E54F
:0C263E0014240EF8C3EF96EA0896E4336B
:0C264A00D004D003D002601BE514243043
:0E265600F886820886830886F0123795FFE525
:0926640014240EF8A60708760004
:0C266D00C002C003C004E514240EF8866F
:0C26790007C003C004C007C007E514241C
:0E26850004F8E6C0E008E6C0E008E6C0E008A1
:0C269300E6C0E0E5142410F8E6C0E00802
:0E269F00E6C0E008E6C0E0758200120929AA34
:0E26AD0082E58124F8F581D007D004D003E443
:0426BB00BA0001045C
:0B26BF00D004D003D002700302297485
:0C26CA00C002C003C004E5142430F886F0
:0E26D600820886830886F0123795FAEF14D337
:0C26E4009AF4FAE5142430F88682088687
:0C26F000830886F0EA123529E514242640
:0C26FC00F886820886830886F0E5142426
:0E2708002CF9123795F7A312379509F7A31293
:0B271600379509F7A312379509F7E586
:0C27210014240EF8E624FFFD08E634FF47
:0C272D00FEE4FAFBE514242CF8ED26FD78
:0D273900EE0836FEEA0836FAEB0836FBE53E
:0C274600142426F886820886830886F09A
:0C275200ED123529A3EE123529A3EA127E
:08275E003529A3EB123529E532
:0A27660014240EF8E514240CF9E623
:0E27700025E009F7197700D004D003D002024B
:02277E00289A97
:0C278000C002C003C004E5142426F88643
:0D278C00820886830886F0123795FDA3129F
:0A2799003795FEA3123795FFA31237
:0E27A3003795FA8D828E838FF0C002C003C07E
:0E27B100041209CEE582D004D003D002D00479
:0927BF00D003D00270030229745A
:0C27C800C002C003C004E5142419F88608
:0D27D400820886830886F0123795FDA31257
:0927E1003795FEA3123795A312EF
:0C27EA003795530601E4FFE514240CF8B9
:0C27F600E4C39DF674029E08F6E514246E
:0C2802000CF8E51424F9F9C3E79609E787
:0D280E000896E433D004D003D0026010E53A
:0A281B001424F9F8E514240CF9E682
:05282500F70809E6F7C9
:0C282A00C002C003C004E5142419F886A5
:0D283600820886830886F0123795FDA312F4
:092843003795FEA3123795A3128C
:0C284C003795530601E5142429F8ED2609
:0E285800FDEE0836FE088602C002C003C00472
:0C286600E514240CF8E6C0E008E6C0E031
:0C287200C005C006C002E5142410F88662
:0E287E00820886830886F01236F7E58124FB77
:0E288C00F581D004D003D002D004D003D002D6
:0C289A00C002C003C004E5142410F8E5DF
:0C28A60014240CF9E726F609E70836F6C2
:0C28B200E5142419F88682088683088645
:0C28BE00F0E514242CF9123795F7A31252
:0C28CA00379509F7A312379509F7A31200
:0C28D600379509F7E514240CF886030878
:0C28E2008604E4FAFDE514242CF8EB2633
:0E28EE00FBEC0836FCEA0836FAED0836FDE58C
:0C28FC00142419F886820886830886F0F0
:0C290800EB123529A3EC123529A3EA12CA
:082914003529A3ED123529E578
:0C291C00142416F886820886830886F0D2
:0A292800123795FAA3123795FBE56C
:0C29320014240CF8E62AFA08E63BFBE54A
:0C293E00142416F886820886830886F0B0
:0A294A00EA123529A3EB123529E546
:0A2954001424F9F8E514240CF9E648
:0E295E00C397F608E60997F6D004D003D0021E
:03296C000224073B
:05296F00758200801AD2
:0E2974008A828B838CF0123795FD4305808A92
:0C298200828B838CF0ED123529758208E1
:06298E00851481D0142223
:0A299400C01485811405810581AA95
:0C299E0082AB83ACF0A81408123795F649
:0E29AA00A312379508F674042AFAE43BFB8A60
:0E29B800828B838CF0123795FFA3123795FDAA
:0C29C600A3123795FEC002C003C004A895
:0C29D2001408E6C0E008E6C0E08F828D2B
:0E29DE00838EF0121EAEAD8215811581D004DD
:0E29EC00D003D002ED70148A828B838CF0E44D
:0B29FA00123529A3E4123529A3E412D2
:022A0500352971
:082A07008D82851481D0142298
:0A2A0F00C014858114C082C083C08A
:0C2A1900F0E5812420F581A81408740465
:0E2A250026FDE40836FE0886078D828E838F1C
:0C2A3300F0123795FDA3123795FEA31298
:0C2A3F003795FFE514240AF8A60508A648
:0C2A4B000608A607A814088682088683E7
:0E2A57000886F0123795FDA3123795FEC005D4
:0C2A6500C006E514240AF8868208868367
:0E2A71000886F0121EAEAD8215811581BD00E3
:032A7F00028005CD
:052A82008D82022E759B
:0A2A8700A81408E5142417F97402DE
:0C2A910026F7E4083609F70809E6F7E527
:0C2A9D00142417F886820886830886F04F
:0E2AA900123795FA54806006758208022E7569
:0C2AB700A81408740B26FDE40836FE0885
:0E2AC30086078D828E838FF0123795FAA3124C
:0A2AD1003795FBA3123795FCA31202
:0C2ADB003795FDE51424FAF8C3EA96EBE9
:0C2AE7000896EC0896ED08965010E514D7
:0E2AF30024FAF8A60208A60308A60408A60501
:0A2B0100A81408E514240DF9740768
:0C2B0B0026F7E4083609F70809E6F7E5AC
:0C2B170014240DF886820886830886F0DE
:0C2B2300E4123529A3E4123529A3E412C2
:082B2F003529A3E4123529A8A1
:0A2B37001408E5142411F9740326B4
:0C2B4100F7E4083609F70809E6F7E51488
:0E2B4D002411F886820886830886F07401122F
:0C2B5B003529E51424FAF8E6084608467F
:072B670008467003022E482E
:0C2B6E00A81408740F26FDE40836FE08C9
:0E2B7A0086078D828E838FF0123795FDA31291
:0C2B88003795FEE5142404F8A60508A605
:0C2B940006E5142404F8E608467003026D
:022BA0002E48BD
:0A2BA200E514240AF8E5142414F9E0
:0E2BAC00741926F7E4083609F70809E6F7E57C
:0C2BBA00142414F886820886830886F034
:0C2BC600123795FDE4FEFFE5142406F82C
:0E2BD200ED2D08F6EE3308F6EF3308F618186E
:0C2BE000187600E514240AF8741626FA92
:072BEC00E40836FB08860433
:0C2BF300C002C003C004A814087411261E
:0E2BFF00FAE40836FB0886048A828B838CF089
:0C2C0D00E5142404F8E6123529A308E6BB
:092C1900123529E51424FAF8E54E
:0C2C2200142406F9C3E79609E708960998
:0E2C2E00E7089609E70896D004D003D00240CC
:042C3C0003022D3E24
:0C2C4000C002C003C004E5142404F886A0
:0E2C4C0082088683C004120AB8AA82AB83D025
:0C2C5A0004E5142404F8A60208A603D028
:0C2C660004D003D002E5142404F8E608B2
:0A2C720046701BE5142406F8E51473
:0E2C7C0024FAF9E6F70809E6F70809E6F70872
:062C8A0009E6F7022D3EF1
:0C2C9000E5142404F8B6010708B60003A0
:032C9C00022E4DB8
:0E2C9F008A828B838CF0123795FDA312379535
:0C2CAD00FEE5142404F8C3E69D08E69E32
:052CB9004003022E4D56
:0C2CBE00C002C003C004E514240DF88619
:0D2CCA00820886830886F0123795FAA3125F
:0A2CD7003795FBA3123795FCA312FA
:0C2CE1003795FDE5142406F8E62AFA08F1
:0C2CED00E63BFB08E63CFC08E63DFDE58C
:0C2CF90014240DF886820886830886F0FB
:0C2D0500EA123529A3EB123529A3EC12C9
:082D11003529A3ED123529E577
:0A2D19001424FAF8E5142406F9E684
:0E2D2300C397F608E60997F608E60997F60842
:0D2D3100E60997F6D004D003D002022BF380
:0C2D3E00E51424FAF8E624FF08E634FF50
:0E2D4A00FB08E634FFFC08E634FFC313CC138D
:0A2D5800CB13FA8A06A81408E5144C
:0E2D6200241AF9741326F7E4083609F7080955
:0C2D7000E6F7E5142404F8868208868348
:0C2D7C00C006120D48C0E0E514241DF84C
:0E2D8800D0E0A68208A68308A6F008F6D006C2
:0C2D96008E04E4FDFAFBE514241DF8ECAB
:0E2DA20026FCED0836FDEA0836FAEB0836FB93
:0C2DB000E514241AF88682088683088641
:0D2DBC00F0EC123529A3ED123529A3EA121F
:082DC9003529A3EB123529E5C1
:0C2DD100142414F886820886830886F01B
:0C2DDD00123795C39EFAE5142411F88605
:0C2DE900820886830886F0EA123529E58E
:0C2DF50014240DF886820886830886F0FE
:0B2E0100123795FAA3123795FBA312BD
:092E0C003795FCA3123795FDE592
:0C2E15001424FAF8E62AFA08E63BFB0851
:0C2E2100E63CFC08E63DFDE514240DF83D
:0E2E2D0086820886830886F0EA123529A3EB18
:0B2E3B00123529A3EC123529A3ED127B
:022E460035292C
:052E48007582008028E6
:0C2E4D00E5142417F886820886830886A6
:0C2E5900F0123795FA430280E5142417AC
:0E2E6500F886820886830886F0EA1235297501
:022E73008208D3
:062E7500851481D0142237
:0438F00046415400F9
:062E7B00AA827B007C002E
:0E2E8100C3EB9408EC6480948050327407C355
:0E2E8F009BFDE49CFE8DF005F0EA3392D2EA42
:022E9D008003B0
:032E9F00A2D213A9
:0E2EA200D5F0FAFD139282C284D284D284D27B
:0E2EB00084C284C284C2840BBB00C60C80C3E3
:032EBE00C28222AB
:0E2EC100A283E433FAD284D284C284EA2AFACD
:0E2ECF00A283E4334202D284D284C284EA2A6F
:0E2EDD00FAA283E4334202D284D284C284EA91
:0E2EEB002AFAA283E4334202D284D284C28443
:0E2EF900EA2AFAA283E4334202D284D284C2CF
:0E2F070084EA2AFAA283E4334202D284D284FE
:0E2F1500C284EA2AFAA283E4334202D284D2B2
:0E2F230084C284EA2AFAA283E4334202D284F2
:072F3100D284C2848A8222CF
:062F380053A4F7D2812230
:0A2F3E00C014E581F514243CF58170
:0C2F4800E5142411F876FF0876FF0876E7
:042F5400FF0876FFFD
:062F580020830302351E78
:0E2F5E00C281C281C281758201122E7B7582F2
:082F6C0000122E7B122EC1128F
:092F74002EC1AE82BE01028003F1
:032F7D0002317F9F
:072F8000E5142415FA7B00A3
:0E2F8700C3EB648094A0501DEB2AF9C002C079
:0E2F950002C003C001122EC1AF82D001D003D2
:092FA300D002A7070BD00280DB6D
:0E2FAC008A07C0027B007C40C0027401C0E0B6
:0D2FBA00C007C003C00490054A75F0001266
:0E2FC7001F70AF82E58124FCF581D0028F03DC
:0C2FD500D002EB701C900555A81408E019
:0E2FE100F6A3E008F6A3E008F6A3E008F6A8C1
:072FEF0014087C010230FC14
:052FF600BB0202800394
:032FFB000230ECB5
:0C2FFE007C02A8028607A81408A607EFB2
:0C300A003395E008F608F608F6A8140854
:0C301600E5142435F90808E6090909F75B
:0E30220018E619F718E619F7197700EA04F80E
:0C303000E6FF3395E0FBFDFEE5142435BF
:0E303C00F8E6420708E6420308E6420508E609
:0C304A004206A81408A60708A60308A662
:0A3056000508A606A81408E51424D6
:0E30600039F90808E6090909F718E619F71802
:0E306E00E619F719770074022AF8E6FF339589
:0C307C00E0FBFDFEE5142439F8E64207F5
:0D30880008E6420308E6420508E64206A8F5
:0C3095001408A60708A60308A60508A654
:0A30A10006A81408E5142439F90804
:0E30AB0008E6090909F718E619F718E619F7FB
:0E30B90019770074032AF8E6FF3395E0FAFB5E
:0C30C700FDE5142439F8EF46FEEA084647
:0C30D300FAEB0846FBED0846FDA81408C7
:0D30DF00A60608A60208A60308A605801094
:0C30EC007C03A81408A6030876000876F0
:0430F8000008760056
:0C30FC00E5142411F8E4F608F608F608C4
:0C310800F6E5142405FF7A007B40C004AB
:0E311400C007C002C003E4C0E07402C0E07453
:0A31220000C0E07401C0E0E4C0E06A
:0E312C0090054A75F0001221D5E58124F8F5D2
:0E313A0081D0048C82122E7B758200122E7BB7
:0C314800A814080808088682122E7BA834
:0A315400140808088682122E7BA8DA
:09315E001408088682122E7BA8D9
:0C3167001408080808860518860418865D
:0C317300031886028A82122E7B02351E91
:05317F00BE0202800306
:0331840002351EF3
:0C318700122EC1AA82E5142409F8A60249
:0C319300087600087600087600E5142499
:0C319F0009F8E5142439F90808E60909CC
:0E31AB0009F718E619F718E619F71977001258
:0C31B9002EC1AC82E4FDFAFBE5142439C1
:0E31C500F8E6420408E6420508E6420208E683
:0C31D3004203E5142409F8A60408A60530
:0C31DF0008A60208A603E5142409F8E580
:0C31EB00142439F90808E6090909F7184E
:0E31F700E619F718E619F7197700122EC1AE87
:0C32050082E4FFFAFBE5142439F8E642ED
:0E3211000608E6420708E6420208E64203E528
:0C321F00142409F8A60608A60708A60259
:0A322B0008A603E5142409F8E514D1
:0E3235002439F90808E6090909F718E619F71F
:0E32430018E619F7197700122EC1AE82E4FFCB
:0C325100FAFBE5142439F8E6420608E612
:0C325D00420708E6420208E64203E514BE
:0E3269002409F8A60608A60708A60208A60370
:0C327700122EC1AA82E514240DF8A60254
:0C328300087600087600087600E51424A8
:0C328F000DF8E5142439F90808E60909D7
:0E329B0009F718E619F718E619F71977001267
:0C32A9002EC1AC82E4FDFAFBE5142439D0
:0E32B500F8E6420408E6420508E6420208E692
:0C32C3004203E514240DF8A60408A6053B
:0C32CF0008A60208A603E514240DF8E58B
:0C32DB00142439F90808E6090909F7185D
:0E32E700E619F718E619F7197700122EC1AE96
:0C32F50082E4FFFAFBE5142439F8E642FD
:0E3301000608E6420708E6420208E64203E537
:0C330F0014240DF8A60608A60708A60264
:0A331B0008A603E514240DF8E514DC
:0E3325002439F90808E6090909F718E619F72E
:0E33330018E619F7197700122EC1AE82E4FFDA
:0C334100FAFBE5142439F8E6420608E621
:0C334D00420708E6420208E64203E514CD
:0E335900240DF8A60608A60708A60208A6037B
:0A336700E5142411F8E5142409F917
:0E337100C3E79609E7089609E7089609E708FA
:07337F0096E433FAB40100EB
:0A338600E433FDE5142409F8E51412
:0E339000240DF9E726C0E009E70836C0E00981
:0C339E00E70836C0E009E70836C0E0E5AB
:0C33AA00142438F8D0E0F618D0E0F61833
:0C33B600D0E0F618D0E0F6E5142411F881
:0E33C200860774020826FAE40836FBE4083693
:0C33D000FCE5142435F8C3E69F08E69ADB
:0D33DC0008E69B08E69CE433FF5D700302E9
:0233E90034743A
:0A33EB00E5142409F8E5142411F993
:0E33F500E6C397C0E008E60997C0E008E609C5
:0C34030097C0E008E60997C0E0E514243B
:0E340F0038F8D0E0F618D0E0F618D0E0F61845
:07341D00D0E0F67C007D0009
:0C3424008C06EDFF3395E0FAFBE5142464
:0E3430000DF8C3EE96EF0896EA0896EB0896A4
:05343E00400302351EF1
:0C344300E5142435F8E62EFE08E63FFFF5
:0C344F0008E63A08E63BEE2400F582EFA8
:0C345B003401F583E0F582C004C00512C6
:0D3467002E7BD005D0040CBC00B30D80B04E
:0C347400E5142409F8E6C0E008E6C0E01A
:0E34800008E6C0E008E6C0E090054A75F000DE
:0C348E00122A0FE58124FCF581E51424CE
:0E349A0005FA7B007C40C002C003C004E4C001
:0A34A800E07402C0E07400C0E0749C
:0C34B20001C0E0E4C0E090054A75F000A5
:0C34BE001221D5E58124F8F581E51424E5
:0C34CA0009F8E5142411F9E6F70809E6FA
:0D34D600F70809E6F70809E6F77A007B0021
:0C34E3008A04EBFD3395E0FEFFE51424A5
:0E34EF000DF8C3EC96ED0896EE0896EF0896E1
:0A34FD00501FEA2400F582EB3401B1
:0E350700F583E0F582C002C003122E7BD003D4
:09351500D0020ABA00C80B80C5FF
:09351E00D281022F58851481D0DE
:0235270014226C
:06003700E478FFF6D8FD9D
:080015007900E94400601B7A48
:05001D00009038F478AA
:030022006175AA5B
:0A00250005E493F2A308B8000205F9
:08002F00AAD9F4DAF275AAFF68
:0E35290020F71030F6118883A88220F507F6EF
:05353700A8837583006C
:01353C00226C
:03353D00F280F722
:02354000F02277
:0E35420074FE2581F8E68582F0A4C0E0858243
:0E355000F018E6A4F582D0E025F0C58386F0E1
:06355E00A42583F5832281
:0A356400C014858114C082C083C02A
:0C356E00F0E51424F9F8E6084670069019
:05357A000000023619FB
:0A357F00E51424F9F8860508860615
:053589001DBDFF011E45
:0C358E00ED4E6054C005C006A81408866D
:0C359A00820886830886F0123795FFE552
:0C35A6001424FBF8860208860308860443
:0E35B2008A828B838CF0123795FDEFB50504ED
:0435C0007401800111
:0135C400E422
:0C35C500D006D005601BA8140806B60054
:0335D100020806E7
:0C35D400E51424FBF874012AF6E43B081F
:0635E000F608A60480A31A
:0C35E600A8140886820886830886F0126C
:0C35F2003795FA7B00E51424FBF88604F2
:0D35FE000886050886068C828D838EF012EB
:0E360B003795FC7D00EAC39CF582EB9DF583AC
:06361900851481D014228B
:04003D0075AA017827
:0700410000E84400600779AC
:0600480000E4F309D8FCFE
:08004E007861E84404600C79BC
:0B00560005900100E4F0A3D8FCD9FAEB
:06361F00FBE58124FBF82D
:0A362500E6F9087A20E4FCFDFEFF40
:0E362F00E5822582F582E58333F583E5F033ED
:0B363D00F5F0EB33FB4017DAE98042A8
:0E364800E5822582F582E58333F583E5F033D4
:05365600F5F0EB33FB71
:0E365B00EC33FCED33FDEE33FEEF33FFEC9964
:0E366900ED96EE0896EF089618184013EC99AF
:0E367700FCED96FDEE0896FEEF0896FF181883
:033685004382017C
:02368800DABEA8
:02368A00EB2231
:0A368C00C014858114C082C083C001
:0B369600F0058105810581A81408E5FE
:0C36A100142404F9E6F70809E6F708090C
:0C36AD00E6F7E51424FBF886020886030B
:0936B9008A048B051ABAFF011BFB
:0C36C200EC4D6020E5142404F88682081A
:0C36CE0086830886F0A914191919E71268
:0C36DA003529A31818A68208A68380D307
:0C36E600A8140886820886830886F085F8
:0536F2001481D0142238
:0A36F700C014E581F5142409F581E3
:0C370100AA82AB83ACF0A81408A6020852
:0C370D00A60308A604E51424FBF88605BA
:0C371900088606088607E5142407F8A6B9
:0C3725000508A60608A607E5142404F811
:0C373100A60208A60308A604E51424F96B
:06373D00F886050886066F
:093743008D078E021DBDFF011E61
:0C374C00EF4A6034E5142407F886820878
:0E37580086830886F0123795FAA31818A68209
:0C37660008A683E5142404F88682088677
:0E377200830886F0EA123529A31818A68208EB
:04378000A68380BFDD
:0C378400A8140886820886830886F08559
:053790001481D0142299
:03000800758114EB
:0A000B001200F2E582600302000318
:0E37950020F71430F6148883A88220F507E68A
:0637A300A88375830022DB
:0337A900E280F7C4
:0337AC00E4932281
:0237AF00E02216
:0E37B100AAF0FB74FB2581F8E58286F0A9F0F2
:0E37BF0008A4FCADF0E58389F0A42DFDE435EF
:0E37CD00F0FEE58286F0A42DFDE5F03EFEE460
:0E37DB0033FFEA89F0A42EFEE5F03FFFE58300
:0E37E90086F0A42EFEE5F03FFFE5820886F094
:0E37F700A42EFEE5F03FFFEB89F0A42FFFE5C6
:0E3805008386F0A42FFFEA1886F0A42FFFE5BB
:0E38130082080886F0A42F8EF08D838C82220E
:0E382100C2D5E58330E70DD2D5E4C39582F51C
:06382F0082E49583F5839D
:0E383500E58124FEF8E630E70918E4C396F6B4
:04384300E40896F609
:0E384700860118860012386830D50BE4C39550
:0838550082F582E49583F583FE
:01385D002248
:0A385E00E58124FEF88601188600BB
:06386800E84960367A0118
:0E386E00E825E0F8E933400EF9E58298E5839D
:06387C009940030A80ECF4
:02388200C3E998
:0538840013F9E813F840
:0E388900C3E58298F5F0E583994005F5838547
:02389700F082BD
:09389900C3E913F9E813F8DAE7BA
:0138A2002203
:00000001FF
